{
  "_format": "hh-sol-artifact-1",
  "contractName": "Motion",
  "sourceName": "contracts/motion.sol",
  "abi": [
    {
      "anonymous": false,
      "inputs": [
        {
          "indexed": true,
          "internalType": "bytes32",
          "name": "key",
          "type": "bytes32"
        }
      ],
      "name": "MotionCreated",
      "type": "event"
    },
    {
      "inputs": [
        {
          "internalType": "bytes32",
          "name": "_key",
          "type": "bytes32"
        }
      ],
      "name": "countVote",
      "outputs": [],
      "stateMutability": "nonpayable",
      "type": "function"
    },
    {
      "inputs": [
        {
          "internalType": "string",
          "name": "_name",
          "type": "string"
        },
        {
          "internalType": "address",
          "name": "_tokenAddr",
          "type": "address"
        }
      ],
      "name": "createKey",
      "outputs": [
        {
          "internalType": "bytes32",
          "name": "",
          "type": "bytes32"
        }
      ],
      "stateMutability": "view",
      "type": "function"
    },
    {
      "inputs": [
        {
          "internalType": "bytes32",
          "name": "_key",
          "type": "bytes32"
        }
      ],
      "name": "getName",
      "outputs": [
        {
          "internalType": "string",
          "name": "",
          "type": "string"
        }
      ],
      "stateMutability": "view",
      "type": "function"
    },
    {
      "inputs": [
        {
          "internalType": "bytes32",
          "name": "_key",
          "type": "bytes32"
        }
      ],
      "name": "getNays",
      "outputs": [
        {
          "internalType": "uint256",
          "name": "",
          "type": "uint256"
        }
      ],
      "stateMutability": "view",
      "type": "function"
    },
    {
      "inputs": [
        {
          "internalType": "bytes32",
          "name": "_key",
          "type": "bytes32"
        }
      ],
      "name": "getYays",
      "outputs": [
        {
          "internalType": "uint256",
          "name": "",
          "type": "uint256"
        }
      ],
      "stateMutability": "view",
      "type": "function"
    },
    {
      "inputs": [
        {
          "internalType": "bytes32",
          "name": "_key",
          "type": "bytes32"
        },
        {
          "internalType": "string",
          "name": "_name",
          "type": "string"
        },
        {
          "internalType": "address",
          "name": "_tokenAddr",
          "type": "address"
        }
      ],
      "name": "proposeMotion",
      "outputs": [],
      "stateMutability": "nonpayable",
      "type": "function"
    },
    {
      "inputs": [
        {
          "internalType": "bytes32",
          "name": "_key",
          "type": "bytes32"
        }
      ],
      "name": "returnTokens",
      "outputs": [],
      "stateMutability": "nonpayable",
      "type": "function"
    },
    {
      "inputs": [
        {
          "internalType": "bytes32",
          "name": "_key",
          "type": "bytes32"
        },
        {
          "internalType": "bool",
          "name": "_for",
          "type": "bool"
        },
        {
          "internalType": "uint256",
          "name": "_tokens",
          "type": "uint256"
        }
      ],
      "name": "vote",
      "outputs": [],
      "stateMutability": "nonpayable",
      "type": "function"
    }
  ],
  "bytecode": "0x608060405234801561001057600080fd5b50611adc806100206000396000f3fe608060405234801561001057600080fd5b50600436106100885760003560e01c80636b844f2c1161005b5780636b844f2c146101255780638264567014610155578063d073a8fa14610185578063d3c049d3146101a157610088565b80630e5204971461008d5780633dfcd149146100a95780634a8e0f28146100c557806354b8d5e3146100f5575b600080fd5b6100a760048036038101906100a291906113dc565b6101bd565b005b6100c360048036038101906100be9190611364565b61034a565b005b6100df60048036038101906100da9190611443565b6106e2565b6040516100ec91906116d5565b60405180910390f35b61010f600480360381019061010a9190611364565b610719565b60405161011c91906116f0565b60405180910390f35b61013f600480360381019061013a9190611364565b6107c0565b60405161014c9190611752565b60405180910390f35b61016f600480360381019061016a9190611364565b6107df565b60405161017c9190611752565b60405180910390f35b61019f600480360381019061019a9190611364565b6107fe565b005b6101bb60048036038101906101b6919061138d565b610ceb565b005b6040518060a001604052808381526020018273ffffffffffffffffffffffffffffffffffffffff168152602001600081526020016000815260200160006002811115610232577f4e487b7100000000000000000000000000000000000000000000000000000000600052602160045260246000fd5b81525060008085815260200190815260200160002060008201518160000190805190602001906102639291906111b2565b5060208201518160010160006101000a81548173ffffffffffffffffffffffffffffffffffffffff021916908373ffffffffffffffffffffffffffffffffffffffff160217905550604082015181600201556060820151816003015560808201518160040160006101000a81548160ff02191690836002811115610310577f4e487b7100000000000000000000000000000000000000000000000000000000600052602160045260246000fd5b0217905550905050827fdc396f10375221dd1a9c697ed5e2a7864ef1eb3dc140071da067f4b2d74d001960405160405180910390a2505050565b60008060008381526020019081526020016000206040518060a001604052908160008201805461037990611910565b80601f01602080910402602001604051908101604052809291908181526020018280546103a590611910565b80156103f25780601f106103c7576101008083540402835291602001916103f2565b820191906000526020600020905b8154815290600101906020018083116103d557829003601f168201915b505050505081526020016001820160009054906101000a900473ffffffffffffffffffffffffffffffffffffffff1673ffffffffffffffffffffffffffffffffffffffff1673ffffffffffffffffffffffffffffffffffffffff16815260200160028201548152602001600382015481526020016004820160009054906101000a900460ff1660028111156104b0577f4e487b7100000000000000000000000000000000000000000000000000000000600052602160045260246000fd5b60028111156104e8577f4e487b7100000000000000000000000000000000000000000000000000000000600052602160045260246000fd5b81525050905060006002811115610528577f4e487b7100000000000000000000000000000000000000000000000000000000600052602160045260246000fd5b81608001516002811115610565577f4e487b7100000000000000000000000000000000000000000000000000000000600052602160045260246000fd5b14156105a6576040517f08c379a000000000000000000000000000000000000000000000000000000000815260040161059d90611712565b60405180910390fd5b806020015173ffffffffffffffffffffffffffffffffffffffff1663a9059cbb336001600086815260200190815260200160002060003373ffffffffffffffffffffffffffffffffffffffff1673ffffffffffffffffffffffffffffffffffffffff168152602001908152602001600020546040518363ffffffff1660e01b81526004016106359291906116ac565b602060405180830381600087803b15801561064f57600080fd5b505af1158015610663573d6000803e3d6000fd5b505050506040513d601f19601f82011682018060405250810190610687919061133b565b5060006001600084815260200190815260200160002060003373ffffffffffffffffffffffffffffffffffffffff1673ffffffffffffffffffffffffffffffffffffffff168152602001908152602001600020819055505050565b6000428383336040516020016106fb949392919061162b565b60405160208183030381529060405280519060200120905092915050565b6060600080838152602001908152602001600020600001805461073b90611910565b80601f016020809104026020016040519081016040528092919081815260200182805461076790611910565b80156107b45780601f10610789576101008083540402835291602001916107b4565b820191906000526020600020905b81548152906001019060200180831161079757829003601f168201915b50505050509050919050565b6000806000838152602001908152602001600020600201549050919050565b6000806000838152602001908152602001600020600301549050919050565b60008060008381526020019081526020016000206040518060a001604052908160008201805461082d90611910565b80601f016020809104026020016040519081016040528092919081815260200182805461085990611910565b80156108a65780601f1061087b576101008083540402835291602001916108a6565b820191906000526020600020905b81548152906001019060200180831161088957829003601f168201915b505050505081526020016001820160009054906101000a900473ffffffffffffffffffffffffffffffffffffffff1673ffffffffffffffffffffffffffffffffffffffff1673ffffffffffffffffffffffffffffffffffffffff16815260200160028201548152602001600382015481526020016004820160009054906101000a900460ff166002811115610964577f4e487b7100000000000000000000000000000000000000000000000000000000600052602160045260246000fd5b600281111561099c577f4e487b7100000000000000000000000000000000000000000000000000000000600052602160045260246000fd5b815250509050600060028111156109dc577f4e487b7100000000000000000000000000000000000000000000000000000000600052602160045260246000fd5b81608001516002811115610a19577f4e487b7100000000000000000000000000000000000000000000000000000000600052602160045260246000fd5b14610a59576040517f08c379a0000000000000000000000000000000000000000000000000000000008152600401610a5090611732565b60405180910390fd5b60006002826020015173ffffffffffffffffffffffffffffffffffffffff166318160ddd6040518163ffffffff1660e01b815260040160206040518083038186803b158015610aa757600080fd5b505afa158015610abb573d6000803e3d6000fd5b505050506040513d601f19601f82011682018060405250810190610adf9190611497565b610ae9919061184b565b905080826040015110610b7857600182608001906002811115610b35577f4e487b7100000000000000000000000000000000000000000000000000000000600052602160045260246000fd5b90816002811115610b6f577f4e487b7100000000000000000000000000000000000000000000000000000000600052602160045260246000fd5b81525050610c02565b80826060015110610c0157600282608001906002811115610bc2577f4e487b7100000000000000000000000000000000000000000000000000000000600052602160045260246000fd5b90816002811115610bfc577f4e487b7100000000000000000000000000000000000000000000000000000000600052602160045260246000fd5b815250505b5b816000808581526020019081526020016000206000820151816000019080519060200190610c319291906111b2565b5060208201518160010160006101000a81548173ffffffffffffffffffffffffffffffffffffffff021916908373ffffffffffffffffffffffffffffffffffffffff160217905550604082015181600201556060820151816003015560808201518160040160006101000a81548160ff02191690836002811115610cde577f4e487b7100000000000000000000000000000000000000000000000000000000600052602160045260246000fd5b0217905550905050505050565b60008060008581526020019081526020016000206040518060a0016040529081600082018054610d1a90611910565b80601f0160208091040260200160405190810160405280929190818152602001828054610d4690611910565b8015610d935780601f10610d6857610100808354040283529160200191610d93565b820191906000526020600020905b815481529060010190602001808311610d7657829003601f168201915b505050505081526020016001820160009054906101000a900473ffffffffffffffffffffffffffffffffffffffff1673ffffffffffffffffffffffffffffffffffffffff1673ffffffffffffffffffffffffffffffffffffffff16815260200160028201548152602001600382015481526020016004820160009054906101000a900460ff166002811115610e51577f4e487b7100000000000000000000000000000000000000000000000000000000600052602160045260246000fd5b6002811115610e89577f4e487b7100000000000000000000000000000000000000000000000000000000600052602160045260246000fd5b81525050905060006002811115610ec9577f4e487b7100000000000000000000000000000000000000000000000000000000600052602160045260246000fd5b81608001516002811115610f06577f4e487b7100000000000000000000000000000000000000000000000000000000600052602160045260246000fd5b14610f46576040517f08c379a0000000000000000000000000000000000000000000000000000000008152600401610f3d90611732565b60405180910390fd5b806020015173ffffffffffffffffffffffffffffffffffffffff166323b872dd3330856040518463ffffffff1660e01b8152600401610f8793929190611675565b602060405180830381600087803b158015610fa157600080fd5b505af1158015610fb5573d6000803e3d6000fd5b505050506040513d601f19601f82011682018060405250810190610fd9919061133b565b50816001600086815260200190815260200160002060003373ffffffffffffffffffffffffffffffffffffffff1673ffffffffffffffffffffffffffffffffffffffff1681526020019081526020016000205461103691906117f5565b6001600086815260200190815260200160002060003373ffffffffffffffffffffffffffffffffffffffff1673ffffffffffffffffffffffffffffffffffffffff1681526020019081526020016000208190555082156110ae578181604001516110a091906117f5565b8160400181815250506110c8565b8181606001516110be91906117f5565b8160600181815250505b8060008086815260200190815260200160002060008201518160000190805190602001906110f79291906111b2565b5060208201518160010160006101000a81548173ffffffffffffffffffffffffffffffffffffffff021916908373ffffffffffffffffffffffffffffffffffffffff160217905550604082015181600201556060820151816003015560808201518160040160006101000a81548160ff021916908360028111156111a4577f4e487b7100000000000000000000000000000000000000000000000000000000600052602160045260246000fd5b021790555090505050505050565b8280546111be90611910565b90600052602060002090601f0160209004810192826111e05760008555611227565b82601f106111f957805160ff1916838001178555611227565b82800160010185558215611227579182015b8281111561122657825182559160200191906001019061120b565b5b5090506112349190611238565b5090565b5b80821115611251576000816000905550600101611239565b5090565b60006112686112638461179e565b61176d565b90508281526020810184848401111561128057600080fd5b61128b8482856118ce565b509392505050565b6000813590506112a281611a4a565b92915050565b6000813590506112b781611a61565b92915050565b6000815190506112cc81611a61565b92915050565b6000813590506112e181611a78565b92915050565b600082601f8301126112f857600080fd5b8135611308848260208601611255565b91505092915050565b60008135905061132081611a8f565b92915050565b60008151905061133581611a8f565b92915050565b60006020828403121561134d57600080fd5b600061135b848285016112bd565b91505092915050565b60006020828403121561137657600080fd5b6000611384848285016112d2565b91505092915050565b6000806000606084860312156113a257600080fd5b60006113b0868287016112d2565b93505060206113c1868287016112a8565b92505060406113d286828701611311565b9150509250925092565b6000806000606084860312156113f157600080fd5b60006113ff868287016112d2565b935050602084013567ffffffffffffffff81111561141c57600080fd5b611428868287016112e7565b925050604061143986828701611293565b9150509250925092565b6000806040838503121561145657600080fd5b600083013567ffffffffffffffff81111561147057600080fd5b61147c858286016112e7565b925050602061148d85828601611293565b9150509250929050565b6000602082840312156114a957600080fd5b60006114b784828501611326565b91505092915050565b6114c98161187c565b82525050565b6114e06114db8261187c565b611942565b82525050565b6114ef8161189a565b82525050565b6000611500826117ce565b61150a81856117d9565b935061151a8185602086016118dd565b61152381611a2c565b840191505092915050565b6000611539826117ce565b61154381856117ea565b93506115538185602086016118dd565b80840191505092915050565b600061156c6017836117d9565b91507f4d6f74696f6e207374696c6c20696e2070726f636573730000000000000000006000830152602082019050919050565b60006115ac6021836117d9565b91507f4d6f74696f6e2068617320616c7265616479206265656e20636f6d706c65746560008301527f64000000000000000000000000000000000000000000000000000000000000006020830152604082019050919050565b61160e816118c4565b82525050565b611625611620826118c4565b611966565b82525050565b60006116378287611614565b602082019150611647828661152e565b915061165382856114cf565b60148201915061166382846114cf565b60148201915081905095945050505050565b600060608201905061168a60008301866114c0565b61169760208301856114c0565b6116a46040830184611605565b949350505050565b60006040820190506116c160008301856114c0565b6116ce6020830184611605565b9392505050565b60006020820190506116ea60008301846114e6565b92915050565b6000602082019050818103600083015261170a81846114f5565b905092915050565b6000602082019050818103600083015261172b8161155f565b9050919050565b6000602082019050818103600083015261174b8161159f565b9050919050565b60006020820190506117676000830184611605565b92915050565b6000604051905081810181811067ffffffffffffffff82111715611794576117936119fd565b5b8060405250919050565b600067ffffffffffffffff8211156117b9576117b86119fd565b5b601f19601f8301169050602081019050919050565b600081519050919050565b600082825260208201905092915050565b600081905092915050565b6000611800826118c4565b915061180b836118c4565b9250827fffffffffffffffffffffffffffffffffffffffffffffffffffffffffffffffff038211156118405761183f611970565b5b828201905092915050565b6000611856826118c4565b9150611861836118c4565b9250826118715761187061199f565b5b828204905092915050565b6000611887826118a4565b9050919050565b60008115159050919050565b6000819050919050565b600073ffffffffffffffffffffffffffffffffffffffff82169050919050565b6000819050919050565b82818337600083830152505050565b60005b838110156118fb5780820151818401526020810190506118e0565b8381111561190a576000848401525b50505050565b6000600282049050600182168061192857607f821691505b6020821081141561193c5761193b6119ce565b5b50919050565b600061194d82611954565b9050919050565b600061195f82611a3d565b9050919050565b6000819050919050565b7f4e487b7100000000000000000000000000000000000000000000000000000000600052601160045260246000fd5b7f4e487b7100000000000000000000000000000000000000000000000000000000600052601260045260246000fd5b7f4e487b7100000000000000000000000000000000000000000000000000000000600052602260045260246000fd5b7f4e487b7100000000000000000000000000000000000000000000000000000000600052604160045260246000fd5b6000601f19601f8301169050919050565b60008160601b9050919050565b611a538161187c565b8114611a5e57600080fd5b50565b611a6a8161188e565b8114611a7557600080fd5b50565b611a818161189a565b8114611a8c57600080fd5b50565b611a98816118c4565b8114611aa357600080fd5b5056fea26469706673582212203566a2961c9eeb58ab64a5ddf805e0be51715556c4117bdf905c765a26c0131464736f6c63430008000033",
  "linkReferences": {},
  "deployedLinkReferences": {}
}