{
  "_format": "hh-sol-artifact-1",
  "contractName": "Motion",
  "sourceName": "contracts/motion.sol",
  "abi": [
    {
      "anonymous": false,
      "inputs": [
        {
          "indexed": true,
          "internalType": "string",
          "name": "_description",
          "type": "string"
        },
        {
          "indexed": false,
          "internalType": "bool",
          "name": "_motionPassed",
          "type": "bool"
        }
      ],
      "name": "MotionPassed",
      "type": "event"
    },
    {
      "anonymous": false,
      "inputs": [
        {
          "indexed": true,
          "internalType": "string",
          "name": "_description",
          "type": "string"
        }
      ],
      "name": "MotionProposed",
      "type": "event"
    },
    {
      "anonymous": false,
      "inputs": [
        {
          "indexed": true,
          "internalType": "string",
          "name": "_description",
          "type": "string"
        },
        {
          "indexed": false,
          "internalType": "uint256",
          "name": "_yay",
          "type": "uint256"
        },
        {
          "indexed": false,
          "internalType": "uint256",
          "name": "_nay",
          "type": "uint256"
        }
      ],
      "name": "VotesCounted",
      "type": "event"
    },
    {
      "inputs": [
        {
          "internalType": "string",
          "name": "_description",
          "type": "string"
        },
        {
          "internalType": "address",
          "name": "_token",
          "type": "address"
        }
      ],
      "name": "proposeMotion",
      "outputs": [],
      "stateMutability": "nonpayable",
      "type": "function"
    }
  ],
  "bytecode": "0x608060405234801561001057600080fd5b5061045d806100206000396000f3fe608060405234801561001057600080fd5b506004361061002b5760003560e01c80635d9767c814610030575b600080fd5b61004a6004803603810190610045919061025a565b61004c565b005b60008060405180608001604052808473ffffffffffffffffffffffffffffffffffffffff16815260200160008152602001600081526020018360028111156100bd577f4e487b7100000000000000000000000000000000000000000000000000000000600052602160045260246000fd5b8152509050806000856040516100d391906102df565b908152602001604051809103902060008201518160000160006101000a81548173ffffffffffffffffffffffffffffffffffffffff021916908373ffffffffffffffffffffffffffffffffffffffff160217905550602082015181600101556040820151816002015560608201518160030160006101000a81548160ff0219169083600281111561018d577f4e487b7100000000000000000000000000000000000000000000000000000000600052602160045260246000fd5b0217905550905050836040516101a391906102df565b60405180910390207fa6fbd47075ecb00d9fb7bcd7d3011a6b7555f0f5ef7c7043600064e1049daaec60405160405180910390a250505050565b60006101f06101eb84610327565b6102f6565b90508281526020810184848401111561020857600080fd5b61021384828561039f565b509392505050565b60008135905061022a81610410565b92915050565b600082601f83011261024157600080fd5b81356102518482602086016101dd565b91505092915050565b6000806040838503121561026d57600080fd5b600083013567ffffffffffffffff81111561028757600080fd5b61029385828601610230565b92505060206102a48582860161021b565b9150509250929050565b60006102b982610357565b6102c38185610362565b93506102d38185602086016103ae565b80840191505092915050565b60006102eb82846102ae565b915081905092915050565b6000604051905081810181811067ffffffffffffffff8211171561031d5761031c6103e1565b5b8060405250919050565b600067ffffffffffffffff821115610342576103416103e1565b5b601f19601f8301169050602081019050919050565b600081519050919050565b600081905092915050565b60006103788261037f565b9050919050565b600073ffffffffffffffffffffffffffffffffffffffff82169050919050565b82818337600083830152505050565b60005b838110156103cc5780820151818401526020810190506103b1565b838111156103db576000848401525b50505050565b7f4e487b7100000000000000000000000000000000000000000000000000000000600052604160045260246000fd5b6104198161036d565b811461042457600080fd5b5056fea2646970667358221220d94559a4f26e943e10c0d005196e451fe78117df74403abf3239760af1bb513c64736f6c63430008000033",
  "linkReferences": {},
  "deployedLinkReferences": {}
}