{
  "_format": "hh-sol-artifact-1",
  "contractName": "Motion",
  "sourceName": "contracts/motion.sol",
  "abi": [
    {
      "anonymous": false,
      "inputs": [
        {
          "indexed": true,
          "internalType": "bytes32",
          "name": "key",
          "type": "bytes32"
        }
      ],
      "name": "MotionCreated",
      "type": "event"
    },
    {
      "inputs": [
        {
          "internalType": "bytes32",
          "name": "_key",
          "type": "bytes32"
        }
      ],
      "name": "countVote",
      "outputs": [],
      "stateMutability": "nonpayable",
      "type": "function"
    },
    {
      "inputs": [
        {
          "internalType": "string",
          "name": "_name",
          "type": "string"
        },
        {
          "internalType": "address",
          "name": "_tokenAddr",
          "type": "address"
        }
      ],
      "name": "createKey",
      "outputs": [
        {
          "internalType": "bytes32",
          "name": "",
          "type": "bytes32"
        }
      ],
      "stateMutability": "view",
      "type": "function"
    },
    {
      "inputs": [
        {
          "internalType": "bytes32",
          "name": "_key",
          "type": "bytes32"
        }
      ],
      "name": "getName",
      "outputs": [
        {
          "internalType": "string",
          "name": "",
          "type": "string"
        }
      ],
      "stateMutability": "view",
      "type": "function"
    },
    {
      "inputs": [
        {
          "internalType": "bytes32",
          "name": "_key",
          "type": "bytes32"
        }
      ],
      "name": "getNays",
      "outputs": [
        {
          "internalType": "uint256",
          "name": "",
          "type": "uint256"
        }
      ],
      "stateMutability": "view",
      "type": "function"
    },
    {
      "inputs": [
        {
          "internalType": "bytes32",
          "name": "_key",
          "type": "bytes32"
        }
      ],
      "name": "getYays",
      "outputs": [
        {
          "internalType": "uint256",
          "name": "",
          "type": "uint256"
        }
      ],
      "stateMutability": "view",
      "type": "function"
    },
    {
      "inputs": [
        {
          "internalType": "bytes32",
          "name": "_key",
          "type": "bytes32"
        }
      ],
      "name": "isCompleted",
      "outputs": [
        {
          "internalType": "bool",
          "name": "",
          "type": "bool"
        }
      ],
      "stateMutability": "view",
      "type": "function"
    },
    {
      "inputs": [
        {
          "internalType": "bytes32",
          "name": "_key",
          "type": "bytes32"
        },
        {
          "internalType": "string",
          "name": "_name",
          "type": "string"
        },
        {
          "internalType": "address",
          "name": "_tokenAddr",
          "type": "address"
        }
      ],
      "name": "proposeMotion",
      "outputs": [],
      "stateMutability": "nonpayable",
      "type": "function"
    },
    {
      "inputs": [
        {
          "internalType": "bytes32",
          "name": "_key",
          "type": "bytes32"
        }
      ],
      "name": "returnTokens",
      "outputs": [],
      "stateMutability": "nonpayable",
      "type": "function"
    },
    {
      "inputs": [
        {
          "internalType": "bytes32",
          "name": "_key",
          "type": "bytes32"
        },
        {
          "internalType": "bool",
          "name": "_for",
          "type": "bool"
        },
        {
          "internalType": "uint256",
          "name": "_tokens",
          "type": "uint256"
        }
      ],
      "name": "vote",
      "outputs": [],
      "stateMutability": "nonpayable",
      "type": "function"
    }
  ],
  "bytecode": "0x608060405234801561001057600080fd5b50611bfd806100206000396000f3fe608060405234801561001057600080fd5b50600436106100935760003560e01c806354b8d5e31161006657806354b8d5e3146101305780636b844f2c146101605780638264567014610190578063d073a8fa146101c0578063d3c049d3146101dc57610093565b80630e5204971461009857806312cab545146100b45780633dfcd149146100e45780634a8e0f2814610100575b600080fd5b6100b260048036038101906100ad91906114d3565b6101f8565b005b6100ce60048036038101906100c9919061145b565b610385565b6040516100db91906117db565b60405180910390f35b6100fe60048036038101906100f9919061145b565b610424565b005b61011a6004803603810190610115919061153a565b6107bc565b60405161012791906117f6565b60405180910390f35b61014a6004803603810190610145919061145b565b6107f3565b6040516101579190611811565b60405180910390f35b61017a6004803603810190610175919061145b565b61089a565b6040516101879190611873565b60405180910390f35b6101aa60048036038101906101a5919061145b565b6108b9565b6040516101b79190611873565b60405180910390f35b6101da60048036038101906101d5919061145b565b6108d8565b005b6101f660048036038101906101f19190611484565b610dc5565b005b6040518060a001604052808381526020018273ffffffffffffffffffffffffffffffffffffffff16815260200160008152602001600081526020016000600281111561026d577f4e487b7100000000000000000000000000000000000000000000000000000000600052602160045260246000fd5b815250600080858152602001908152602001600020600082015181600001908051906020019061029e9291906112a9565b5060208201518160010160006101000a81548173ffffffffffffffffffffffffffffffffffffffff021916908373ffffffffffffffffffffffffffffffffffffffff160217905550604082015181600201556060820151816003015560808201518160040160006101000a81548160ff0219169083600281111561034b577f4e487b7100000000000000000000000000000000000000000000000000000000600052602160045260246000fd5b0217905550905050827fdc396f10375221dd1a9c697ed5e2a7864ef1eb3dc140071da067f4b2d74d001960405160405180910390a2505050565b60008060028111156103c0577f4e487b7100000000000000000000000000000000000000000000000000000000600052602160045260246000fd5b60008084815260200190815260200160002060040160009054906101000a900460ff16600281111561041b577f4e487b7100000000000000000000000000000000000000000000000000000000600052602160045260246000fd5b14159050919050565b60008060008381526020019081526020016000206040518060a001604052908160008201805461045390611a31565b80601f016020809104026020016040519081016040528092919081815260200182805461047f90611a31565b80156104cc5780601f106104a1576101008083540402835291602001916104cc565b820191906000526020600020905b8154815290600101906020018083116104af57829003601f168201915b505050505081526020016001820160009054906101000a900473ffffffffffffffffffffffffffffffffffffffff1673ffffffffffffffffffffffffffffffffffffffff1673ffffffffffffffffffffffffffffffffffffffff16815260200160028201548152602001600382015481526020016004820160009054906101000a900460ff16600281111561058a577f4e487b7100000000000000000000000000000000000000000000000000000000600052602160045260246000fd5b60028111156105c2577f4e487b7100000000000000000000000000000000000000000000000000000000600052602160045260246000fd5b81525050905060006002811115610602577f4e487b7100000000000000000000000000000000000000000000000000000000600052602160045260246000fd5b8160800151600281111561063f577f4e487b7100000000000000000000000000000000000000000000000000000000600052602160045260246000fd5b1415610680576040517f08c379a000000000000000000000000000000000000000000000000000000000815260040161067790611833565b60405180910390fd5b806020015173ffffffffffffffffffffffffffffffffffffffff1663a9059cbb336001600086815260200190815260200160002060003373ffffffffffffffffffffffffffffffffffffffff1673ffffffffffffffffffffffffffffffffffffffff168152602001908152602001600020546040518363ffffffff1660e01b815260040161070f9291906117b2565b602060405180830381600087803b15801561072957600080fd5b505af115801561073d573d6000803e3d6000fd5b505050506040513d601f19601f820116820180604052508101906107619190611432565b5060006001600084815260200190815260200160002060003373ffffffffffffffffffffffffffffffffffffffff1673ffffffffffffffffffffffffffffffffffffffff168152602001908152602001600020819055505050565b6000428383336040516020016107d59493929190611731565b60405160208183030381529060405280519060200120905092915050565b6060600080838152602001908152602001600020600001805461081590611a31565b80601f016020809104026020016040519081016040528092919081815260200182805461084190611a31565b801561088e5780601f106108635761010080835404028352916020019161088e565b820191906000526020600020905b81548152906001019060200180831161087157829003601f168201915b50505050509050919050565b6000806000838152602001908152602001600020600201549050919050565b6000806000838152602001908152602001600020600301549050919050565b60008060008381526020019081526020016000206040518060a001604052908160008201805461090790611a31565b80601f016020809104026020016040519081016040528092919081815260200182805461093390611a31565b80156109805780601f1061095557610100808354040283529160200191610980565b820191906000526020600020905b81548152906001019060200180831161096357829003601f168201915b505050505081526020016001820160009054906101000a900473ffffffffffffffffffffffffffffffffffffffff1673ffffffffffffffffffffffffffffffffffffffff1673ffffffffffffffffffffffffffffffffffffffff16815260200160028201548152602001600382015481526020016004820160009054906101000a900460ff166002811115610a3e577f4e487b7100000000000000000000000000000000000000000000000000000000600052602160045260246000fd5b6002811115610a76577f4e487b7100000000000000000000000000000000000000000000000000000000600052602160045260246000fd5b81525050905060006002811115610ab6577f4e487b7100000000000000000000000000000000000000000000000000000000600052602160045260246000fd5b81608001516002811115610af3577f4e487b7100000000000000000000000000000000000000000000000000000000600052602160045260246000fd5b14610b33576040517f08c379a0000000000000000000000000000000000000000000000000000000008152600401610b2a90611853565b60405180910390fd5b60006002826020015173ffffffffffffffffffffffffffffffffffffffff166318160ddd6040518163ffffffff1660e01b815260040160206040518083038186803b158015610b8157600080fd5b505afa158015610b95573d6000803e3d6000fd5b505050506040513d601f19601f82011682018060405250810190610bb9919061158e565b610bc3919061196c565b905080826040015110610c5257600182608001906002811115610c0f577f4e487b7100000000000000000000000000000000000000000000000000000000600052602160045260246000fd5b90816002811115610c49577f4e487b7100000000000000000000000000000000000000000000000000000000600052602160045260246000fd5b81525050610cdc565b80826060015110610cdb57600282608001906002811115610c9c577f4e487b7100000000000000000000000000000000000000000000000000000000600052602160045260246000fd5b90816002811115610cd6577f4e487b7100000000000000000000000000000000000000000000000000000000600052602160045260246000fd5b815250505b5b816000808581526020019081526020016000206000820151816000019080519060200190610d0b9291906112a9565b5060208201518160010160006101000a81548173ffffffffffffffffffffffffffffffffffffffff021916908373ffffffffffffffffffffffffffffffffffffffff160217905550604082015181600201556060820151816003015560808201518160040160006101000a81548160ff02191690836002811115610db8577f4e487b7100000000000000000000000000000000000000000000000000000000600052602160045260246000fd5b0217905550905050505050565b60008060008581526020019081526020016000206040518060a0016040529081600082018054610df490611a31565b80601f0160208091040260200160405190810160405280929190818152602001828054610e2090611a31565b8015610e6d5780601f10610e4257610100808354040283529160200191610e6d565b820191906000526020600020905b815481529060010190602001808311610e5057829003601f168201915b505050505081526020016001820160009054906101000a900473ffffffffffffffffffffffffffffffffffffffff1673ffffffffffffffffffffffffffffffffffffffff1673ffffffffffffffffffffffffffffffffffffffff16815260200160028201548152602001600382015481526020016004820160009054906101000a900460ff166002811115610f2b577f4e487b7100000000000000000000000000000000000000000000000000000000600052602160045260246000fd5b6002811115610f63577f4e487b7100000000000000000000000000000000000000000000000000000000600052602160045260246000fd5b81525050905060006002811115610fa3577f4e487b7100000000000000000000000000000000000000000000000000000000600052602160045260246000fd5b81608001516002811115610fe0577f4e487b7100000000000000000000000000000000000000000000000000000000600052602160045260246000fd5b14611020576040517f08c379a000000000000000000000000000000000000000000000000000000000815260040161101790611853565b60405180910390fd5b806020015173ffffffffffffffffffffffffffffffffffffffff166323b872dd3330856040518463ffffffff1660e01b81526004016110619392919061177b565b602060405180830381600087803b15801561107b57600080fd5b505af115801561108f573d6000803e3d6000fd5b505050506040513d601f19601f820116820180604052508101906110b39190611432565b50611117826001600087815260200190815260200160002060003373ffffffffffffffffffffffffffffffffffffffff1673ffffffffffffffffffffffffffffffffffffffff1681526020019081526020016000205461129390919063ffffffff16565b6001600086815260200190815260200160002060003373ffffffffffffffffffffffffffffffffffffffff1673ffffffffffffffffffffffffffffffffffffffff16815260200190815260200160002081905550821561118f578181604001516111819190611916565b8160400181815250506111a9565b81816060015161119f9190611916565b8160600181815250505b8060008086815260200190815260200160002060008201518160000190805190602001906111d89291906112a9565b5060208201518160010160006101000a81548173ffffffffffffffffffffffffffffffffffffffff021916908373ffffffffffffffffffffffffffffffffffffffff160217905550604082015181600201556060820151816003015560808201518160040160006101000a81548160ff02191690836002811115611285577f4e487b7100000000000000000000000000000000000000000000000000000000600052602160045260246000fd5b021790555090505050505050565b600081836112a19190611916565b905092915050565b8280546112b590611a31565b90600052602060002090601f0160209004810192826112d7576000855561131e565b82601f106112f057805160ff191683800117855561131e565b8280016001018555821561131e579182015b8281111561131d578251825591602001919060010190611302565b5b50905061132b919061132f565b5090565b5b80821115611348576000816000905550600101611330565b5090565b600061135f61135a846118bf565b61188e565b90508281526020810184848401111561137757600080fd5b6113828482856119ef565b509392505050565b60008135905061139981611b6b565b92915050565b6000813590506113ae81611b82565b92915050565b6000815190506113c381611b82565b92915050565b6000813590506113d881611b99565b92915050565b600082601f8301126113ef57600080fd5b81356113ff84826020860161134c565b91505092915050565b60008135905061141781611bb0565b92915050565b60008151905061142c81611bb0565b92915050565b60006020828403121561144457600080fd5b6000611452848285016113b4565b91505092915050565b60006020828403121561146d57600080fd5b600061147b848285016113c9565b91505092915050565b60008060006060848603121561149957600080fd5b60006114a7868287016113c9565b93505060206114b88682870161139f565b92505060406114c986828701611408565b9150509250925092565b6000806000606084860312156114e857600080fd5b60006114f6868287016113c9565b935050602084013567ffffffffffffffff81111561151357600080fd5b61151f868287016113de565b92505060406115308682870161138a565b9150509250925092565b6000806040838503121561154d57600080fd5b600083013567ffffffffffffffff81111561156757600080fd5b611573858286016113de565b92505060206115848582860161138a565b9150509250929050565b6000602082840312156115a057600080fd5b60006115ae8482850161141d565b91505092915050565b6115c08161199d565b82525050565b6115d76115d28261199d565b611a63565b82525050565b6115e6816119af565b82525050565b6115f5816119bb565b82525050565b6000611606826118ef565b61161081856118fa565b93506116208185602086016119fe565b61162981611b4d565b840191505092915050565b600061163f826118ef565b611649818561190b565b93506116598185602086016119fe565b80840191505092915050565b60006116726017836118fa565b91507f4d6f74696f6e207374696c6c20696e2070726f636573730000000000000000006000830152602082019050919050565b60006116b26021836118fa565b91507f4d6f74696f6e2068617320616c7265616479206265656e20636f6d706c65746560008301527f64000000000000000000000000000000000000000000000000000000000000006020830152604082019050919050565b611714816119e5565b82525050565b61172b611726826119e5565b611a87565b82525050565b600061173d828761171a565b60208201915061174d8286611634565b915061175982856115c6565b60148201915061176982846115c6565b60148201915081905095945050505050565b600060608201905061179060008301866115b7565b61179d60208301856115b7565b6117aa604083018461170b565b949350505050565b60006040820190506117c760008301856115b7565b6117d4602083018461170b565b9392505050565b60006020820190506117f060008301846115dd565b92915050565b600060208201905061180b60008301846115ec565b92915050565b6000602082019050818103600083015261182b81846115fb565b905092915050565b6000602082019050818103600083015261184c81611665565b9050919050565b6000602082019050818103600083015261186c816116a5565b9050919050565b6000602082019050611888600083018461170b565b92915050565b6000604051905081810181811067ffffffffffffffff821117156118b5576118b4611b1e565b5b8060405250919050565b600067ffffffffffffffff8211156118da576118d9611b1e565b5b601f19601f8301169050602081019050919050565b600081519050919050565b600082825260208201905092915050565b600081905092915050565b6000611921826119e5565b915061192c836119e5565b9250827fffffffffffffffffffffffffffffffffffffffffffffffffffffffffffffffff0382111561196157611960611a91565b5b828201905092915050565b6000611977826119e5565b9150611982836119e5565b92508261199257611991611ac0565b5b828204905092915050565b60006119a8826119c5565b9050919050565b60008115159050919050565b6000819050919050565b600073ffffffffffffffffffffffffffffffffffffffff82169050919050565b6000819050919050565b82818337600083830152505050565b60005b83811015611a1c578082015181840152602081019050611a01565b83811115611a2b576000848401525b50505050565b60006002820490506001821680611a4957607f821691505b60208210811415611a5d57611a5c611aef565b5b50919050565b6000611a6e82611a75565b9050919050565b6000611a8082611b5e565b9050919050565b6000819050919050565b7f4e487b7100000000000000000000000000000000000000000000000000000000600052601160045260246000fd5b7f4e487b7100000000000000000000000000000000000000000000000000000000600052601260045260246000fd5b7f4e487b7100000000000000000000000000000000000000000000000000000000600052602260045260246000fd5b7f4e487b7100000000000000000000000000000000000000000000000000000000600052604160045260246000fd5b6000601f19601f8301169050919050565b60008160601b9050919050565b611b748161199d565b8114611b7f57600080fd5b50565b611b8b816119af565b8114611b9657600080fd5b50565b611ba2816119bb565b8114611bad57600080fd5b50565b611bb9816119e5565b8114611bc457600080fd5b5056fea264697066735822122061424c843665a4811daba95aeaa4a61fbbb5f2ecd4b175304a88f00b08fcd08964736f6c63430008000033",
  "linkReferences": {},
  "deployedLinkReferences": {}
}