{
  "_format": "hh-sol-artifact-1",
  "contractName": "Motion",
  "sourceName": "contracts/motion.sol",
  "abi": [
    {
      "anonymous": false,
      "inputs": [
        {
          "indexed": true,
          "internalType": "bytes32",
          "name": "key",
          "type": "bytes32"
        }
      ],
      "name": "MotionCreated",
      "type": "event"
    },
    {
      "inputs": [
        {
          "internalType": "string",
          "name": "_name",
          "type": "string"
        },
        {
          "internalType": "address",
          "name": "_tokenAddr",
          "type": "address"
        }
      ],
      "name": "createKey",
      "outputs": [
        {
          "internalType": "bytes32",
          "name": "",
          "type": "bytes32"
        }
      ],
      "stateMutability": "view",
      "type": "function"
    },
    {
      "inputs": [
        {
          "internalType": "bytes32",
          "name": "_key",
          "type": "bytes32"
        }
      ],
      "name": "getName",
      "outputs": [
        {
          "internalType": "string",
          "name": "",
          "type": "string"
        }
      ],
      "stateMutability": "view",
      "type": "function"
    },
    {
      "inputs": [
        {
          "internalType": "bytes32",
          "name": "_key",
          "type": "bytes32"
        }
      ],
      "name": "getNays",
      "outputs": [
        {
          "internalType": "uint256",
          "name": "",
          "type": "uint256"
        }
      ],
      "stateMutability": "view",
      "type": "function"
    },
    {
      "inputs": [
        {
          "internalType": "bytes32",
          "name": "_key",
          "type": "bytes32"
        }
      ],
      "name": "getYays",
      "outputs": [
        {
          "internalType": "uint256",
          "name": "",
          "type": "uint256"
        }
      ],
      "stateMutability": "view",
      "type": "function"
    },
    {
      "inputs": [
        {
          "internalType": "bytes32",
          "name": "_key",
          "type": "bytes32"
        },
        {
          "internalType": "string",
          "name": "_name",
          "type": "string"
        },
        {
          "internalType": "address",
          "name": "_tokenAddr",
          "type": "address"
        }
      ],
      "name": "proposeMotion",
      "outputs": [],
      "stateMutability": "nonpayable",
      "type": "function"
    },
    {
      "inputs": [
        {
          "internalType": "bytes32",
          "name": "_key",
          "type": "bytes32"
        },
        {
          "internalType": "bool",
          "name": "_for",
          "type": "bool"
        }
      ],
      "name": "vote",
      "outputs": [],
      "stateMutability": "payable",
      "type": "function"
    }
  ],
  "bytecode": "0x608060405234801561001057600080fd5b506110af806100206000396000f3fe6080604052600436106100555760003560e01c80630e5204971461005a5780634a8e0f281461008357806354b8d5e3146100c05780636b844f2c146100fd578063826456701461013a5780639f2ce67814610177575b600080fd5b34801561006657600080fd5b50610081600480360381019061007c9190610b3a565b610193565b005b34801561008f57600080fd5b506100aa60048036038101906100a59190610ba1565b610320565b6040516100b79190610d48565b60405180910390f35b3480156100cc57600080fd5b506100e760048036038101906100e29190610ad5565b610357565b6040516100f49190610d63565b60405180910390f35b34801561010957600080fd5b50610124600480360381019061011f9190610ad5565b6103fe565b6040516101319190610d85565b60405180910390f35b34801561014657600080fd5b50610161600480360381019061015c9190610ad5565b61041d565b60405161016e9190610d85565b60405180910390f35b610191600480360381019061018c9190610afe565b61043c565b005b6040518060a001604052808381526020018273ffffffffffffffffffffffffffffffffffffffff168152602001600081526020016000815260200160006002811115610208577f4e487b7100000000000000000000000000000000000000000000000000000000600052602160045260246000fd5b8152506000808581526020019081526020016000206000820151816000019080519060200190610239929190610976565b5060208201518160010160006101000a81548173ffffffffffffffffffffffffffffffffffffffff021916908373ffffffffffffffffffffffffffffffffffffffff160217905550604082015181600201556060820151816003015560808201518160040160006101000a81548160ff021916908360028111156102e6577f4e487b7100000000000000000000000000000000000000000000000000000000600052602160045260246000fd5b0217905550905050827fdc396f10375221dd1a9c697ed5e2a7864ef1eb3dc140071da067f4b2d74d001960405160405180910390a2505050565b6000428383336040516020016103399493929190610ce3565b60405160208183030381529060405280519060200120905092915050565b6060600080838152602001908152602001600020600001805461037990610f12565b80601f01602080910402602001604051908101604052809291908181526020018280546103a590610f12565b80156103f25780601f106103c7576101008083540402835291602001916103f2565b820191906000526020600020905b8154815290600101906020018083116103d557829003601f168201915b50505050509050919050565b6000806000838152602001908152602001600020600201549050919050565b6000806000838152602001908152602001600020600301549050919050565b60008060008481526020019081526020016000206040518060a001604052908160008201805461046b90610f12565b80601f016020809104026020016040519081016040528092919081815260200182805461049790610f12565b80156104e45780601f106104b9576101008083540402835291602001916104e4565b820191906000526020600020905b8154815290600101906020018083116104c757829003601f168201915b505050505081526020016001820160009054906101000a900473ffffffffffffffffffffffffffffffffffffffff1673ffffffffffffffffffffffffffffffffffffffff1673ffffffffffffffffffffffffffffffffffffffff16815260200160028201548152602001600382015481526020016004820160009054906101000a900460ff1660028111156105a2577f4e487b7100000000000000000000000000000000000000000000000000000000600052602160045260246000fd5b60028111156105da577f4e487b7100000000000000000000000000000000000000000000000000000000600052602160045260246000fd5b815250509050610675816020015173ffffffffffffffffffffffffffffffffffffffff166370a08231336040518263ffffffff1660e01b81526004016106209190610d2d565b60206040518083038186803b15801561063857600080fd5b505afa15801561064c573d6000803e3d6000fd5b505050506040513d601f19601f820116820180604052508101906106709190610bf5565b6108b4565b811561072557806020015173ffffffffffffffffffffffffffffffffffffffff166370a08231336040518263ffffffff1660e01b81526004016106b89190610d2d565b60206040518083038186803b1580156106d057600080fd5b505afa1580156106e4573d6000803e3d6000fd5b505050506040513d601f19601f820116820180604052508101906107089190610bf5565b81604001516107179190610e28565b8160400181815250506107cb565b806020015173ffffffffffffffffffffffffffffffffffffffff166370a08231336040518263ffffffff1660e01b81526004016107629190610d2d565b60206040518083038186803b15801561077a57600080fd5b505afa15801561078e573d6000803e3d6000fd5b505050506040513d601f19601f820116820180604052508101906107b29190610bf5565b81606001516107c19190610e28565b8160600181815250505b8060008085815260200190815260200160002060008201518160000190805190602001906107fa929190610976565b5060208201518160010160006101000a81548173ffffffffffffffffffffffffffffffffffffffff021916908373ffffffffffffffffffffffffffffffffffffffff160217905550604082015181600201556060820151816003015560808201518160040160006101000a81548160ff021916908360028111156108a7577f4e487b7100000000000000000000000000000000000000000000000000000000600052602160045260246000fd5b0217905550905050505050565b61094a816040516024016108c89190610d85565b6040516020818303038152906040527ff5b1bba9000000000000000000000000000000000000000000000000000000007bffffffffffffffffffffffffffffffffffffffffffffffffffffffff19166020820180517bffffffffffffffffffffffffffffffffffffffffffffffffffffffff838183161783525050505061094d565b50565b60008151905060006a636f6e736f6c652e6c6f679050602083016000808483855afa5050505050565b82805461098290610f12565b90600052602060002090601f0160209004810192826109a457600085556109eb565b82601f106109bd57805160ff19168380011785556109eb565b828001600101855582156109eb579182015b828111156109ea5782518255916020019190600101906109cf565b5b5090506109f891906109fc565b5090565b5b80821115610a155760008160009055506001016109fd565b5090565b6000610a2c610a2784610dd1565b610da0565b905082815260208101848484011115610a4457600080fd5b610a4f848285610ed0565b509392505050565b600081359050610a668161101d565b92915050565b600081359050610a7b81611034565b92915050565b600081359050610a908161104b565b92915050565b600082601f830112610aa757600080fd5b8135610ab7848260208601610a19565b91505092915050565b600081519050610acf81611062565b92915050565b600060208284031215610ae757600080fd5b6000610af584828501610a81565b91505092915050565b60008060408385031215610b1157600080fd5b6000610b1f85828601610a81565b9250506020610b3085828601610a6c565b9150509250929050565b600080600060608486031215610b4f57600080fd5b6000610b5d86828701610a81565b935050602084013567ffffffffffffffff811115610b7a57600080fd5b610b8686828701610a96565b9250506040610b9786828701610a57565b9150509250925092565b60008060408385031215610bb457600080fd5b600083013567ffffffffffffffff811115610bce57600080fd5b610bda85828601610a96565b9250506020610beb85828601610a57565b9150509250929050565b600060208284031215610c0757600080fd5b6000610c1584828501610ac0565b91505092915050565b610c2781610e7e565b82525050565b610c3e610c3982610e7e565b610f44565b82525050565b610c4d81610e9c565b82525050565b6000610c5e82610e01565b610c688185610e0c565b9350610c78818560208601610edf565b610c8181610fff565b840191505092915050565b6000610c9782610e01565b610ca18185610e1d565b9350610cb1818560208601610edf565b80840191505092915050565b610cc681610ec6565b82525050565b610cdd610cd882610ec6565b610f68565b82525050565b6000610cef8287610ccc565b602082019150610cff8286610c8c565b9150610d0b8285610c2d565b601482019150610d1b8284610c2d565b60148201915081905095945050505050565b6000602082019050610d426000830184610c1e565b92915050565b6000602082019050610d5d6000830184610c44565b92915050565b60006020820190508181036000830152610d7d8184610c53565b905092915050565b6000602082019050610d9a6000830184610cbd565b92915050565b6000604051905081810181811067ffffffffffffffff82111715610dc757610dc6610fd0565b5b8060405250919050565b600067ffffffffffffffff821115610dec57610deb610fd0565b5b601f19601f8301169050602081019050919050565b600081519050919050565b600082825260208201905092915050565b600081905092915050565b6000610e3382610ec6565b9150610e3e83610ec6565b9250827fffffffffffffffffffffffffffffffffffffffffffffffffffffffffffffffff03821115610e7357610e72610f72565b5b828201905092915050565b6000610e8982610ea6565b9050919050565b60008115159050919050565b6000819050919050565b600073ffffffffffffffffffffffffffffffffffffffff82169050919050565b6000819050919050565b82818337600083830152505050565b60005b83811015610efd578082015181840152602081019050610ee2565b83811115610f0c576000848401525b50505050565b60006002820490506001821680610f2a57607f821691505b60208210811415610f3e57610f3d610fa1565b5b50919050565b6000610f4f82610f56565b9050919050565b6000610f6182611010565b9050919050565b6000819050919050565b7f4e487b7100000000000000000000000000000000000000000000000000000000600052601160045260246000fd5b7f4e487b7100000000000000000000000000000000000000000000000000000000600052602260045260246000fd5b7f4e487b7100000000000000000000000000000000000000000000000000000000600052604160045260246000fd5b6000601f19601f8301169050919050565b60008160601b9050919050565b61102681610e7e565b811461103157600080fd5b50565b61103d81610e90565b811461104857600080fd5b50565b61105481610e9c565b811461105f57600080fd5b50565b61106b81610ec6565b811461107657600080fd5b5056fea264697066735822122036d32ccccfbf1dcca97e65c4a0e4f039b3fcbe358eb7f0fd1e321a7baf38799964736f6c63430008000033",
  "linkReferences": {},
  "deployedLinkReferences": {}
}