{
  "_format": "hh-sol-artifact-1",
  "contractName": "Motion",
  "sourceName": "contracts/motion.sol",
  "abi": [
    {
      "anonymous": false,
      "inputs": [
        {
          "indexed": true,
          "internalType": "bytes32",
          "name": "key",
          "type": "bytes32"
        }
      ],
      "name": "MotionCreated",
      "type": "event"
    },
    {
      "inputs": [
        {
          "internalType": "bytes32",
          "name": "_key",
          "type": "bytes32"
        }
      ],
      "name": "countVote",
      "outputs": [],
      "stateMutability": "nonpayable",
      "type": "function"
    },
    {
      "inputs": [
        {
          "internalType": "string",
          "name": "_name",
          "type": "string"
        },
        {
          "internalType": "address",
          "name": "_tokenAddr",
          "type": "address"
        }
      ],
      "name": "createKey",
      "outputs": [
        {
          "internalType": "bytes32",
          "name": "",
          "type": "bytes32"
        }
      ],
      "stateMutability": "view",
      "type": "function"
    },
    {
      "inputs": [
        {
          "internalType": "bytes32",
          "name": "_key",
          "type": "bytes32"
        }
      ],
      "name": "getName",
      "outputs": [
        {
          "internalType": "string",
          "name": "",
          "type": "string"
        }
      ],
      "stateMutability": "view",
      "type": "function"
    },
    {
      "inputs": [
        {
          "internalType": "bytes32",
          "name": "_key",
          "type": "bytes32"
        }
      ],
      "name": "getNays",
      "outputs": [
        {
          "internalType": "uint256",
          "name": "",
          "type": "uint256"
        }
      ],
      "stateMutability": "view",
      "type": "function"
    },
    {
      "inputs": [
        {
          "internalType": "bytes32",
          "name": "_key",
          "type": "bytes32"
        },
        {
          "internalType": "bool",
          "name": "_for",
          "type": "bool"
        },
        {
          "internalType": "uint256",
          "name": "_tokens",
          "type": "uint256"
        },
        {
          "internalType": "uint256",
          "name": "_nonce",
          "type": "uint256"
        }
      ],
      "name": "getSignedMsgHash",
      "outputs": [
        {
          "internalType": "bytes32",
          "name": "",
          "type": "bytes32"
        }
      ],
      "stateMutability": "pure",
      "type": "function"
    },
    {
      "inputs": [
        {
          "internalType": "bytes32",
          "name": "_key",
          "type": "bytes32"
        }
      ],
      "name": "getYays",
      "outputs": [
        {
          "internalType": "uint256",
          "name": "",
          "type": "uint256"
        }
      ],
      "stateMutability": "view",
      "type": "function"
    },
    {
      "inputs": [
        {
          "internalType": "bytes32",
          "name": "_key",
          "type": "bytes32"
        }
      ],
      "name": "isCompleted",
      "outputs": [
        {
          "internalType": "bool",
          "name": "",
          "type": "bool"
        }
      ],
      "stateMutability": "view",
      "type": "function"
    },
    {
      "inputs": [
        {
          "internalType": "bytes32",
          "name": "_key",
          "type": "bytes32"
        },
        {
          "internalType": "string",
          "name": "_name",
          "type": "string"
        },
        {
          "internalType": "address",
          "name": "_tokenAddr",
          "type": "address"
        }
      ],
      "name": "proposeMotion",
      "outputs": [],
      "stateMutability": "nonpayable",
      "type": "function"
    },
    {
      "inputs": [
        {
          "internalType": "bytes32",
          "name": "_key",
          "type": "bytes32"
        }
      ],
      "name": "returnTokens",
      "outputs": [],
      "stateMutability": "nonpayable",
      "type": "function"
    },
    {
      "inputs": [
        {
          "internalType": "bytes32",
          "name": "_key",
          "type": "bytes32"
        },
        {
          "internalType": "bool",
          "name": "_for",
          "type": "bool"
        },
        {
          "internalType": "uint256",
          "name": "_tokens",
          "type": "uint256"
        },
        {
          "internalType": "bytes",
          "name": "signature",
          "type": "bytes"
        },
        {
          "internalType": "uint256",
          "name": "_nonce",
          "type": "uint256"
        }
      ],
      "name": "vote",
      "outputs": [],
      "stateMutability": "nonpayable",
      "type": "function"
    }
  ],
  "bytecode": "0x608060405234801561001057600080fd5b50611cba806100206000396000f3fe608060405234801561001057600080fd5b506004361061009e5760003560e01c80636b844f2c116100665780636b844f2c1461016b578063826456701461019b5780639e816943146101cb578063b99506cc146101fb578063d073a8fa146102175761009e565b80630e520497146100a357806312cab545146100bf5780633dfcd149146100ef5780634a8e0f281461010b57806354b8d5e31461013b575b600080fd5b6100bd60048036038101906100b89190611322565b610233565b005b6100d960048036038101906100d49190611207565b6103c0565b6040516100e6919061179b565b60405180910390f35b61010960048036038101906101049190611207565b61045f565b005b61012560048036038101906101209190611389565b6107f7565b60405161013291906117b6565b60405180910390f35b61015560048036038101906101509190611207565b61082e565b6040516101629190611816565b60405180910390f35b61018560048036038101906101809190611207565b6108d5565b60405161019291906118b8565b60405180910390f35b6101b560048036038101906101b09190611207565b6108f4565b6040516101c291906118b8565b60405180910390f35b6101e560048036038101906101e091906112bf565b610913565b6040516101f291906117b6565b60405180910390f35b61021560048036038101906102109190611230565b610972565b005b610231600480360381019061022c9190611207565b610c56565b005b6040518060a001604052808381526020018273ffffffffffffffffffffffffffffffffffffffff1681526020016000815260200160008152602001600060028111156102a8577f4e487b7100000000000000000000000000000000000000000000000000000000600052602160045260246000fd5b81525060008085815260200190815260200160002060008201518160000190805190602001906102d9929190610fed565b5060208201518160010160006101000a81548173ffffffffffffffffffffffffffffffffffffffff021916908373ffffffffffffffffffffffffffffffffffffffff160217905550604082015181600201556060820151816003015560808201518160040160006101000a81548160ff02191690836002811115610386577f4e487b7100000000000000000000000000000000000000000000000000000000600052602160045260246000fd5b0217905550905050827fdc396f10375221dd1a9c697ed5e2a7864ef1eb3dc140071da067f4b2d74d001960405160405180910390a2505050565b60008060028111156103fb577f4e487b7100000000000000000000000000000000000000000000000000000000600052602160045260246000fd5b60008084815260200190815260200160002060040160009054906101000a900460ff166002811115610456577f4e487b7100000000000000000000000000000000000000000000000000000000600052602160045260246000fd5b14159050919050565b60008060008381526020019081526020016000206040518060a001604052908160008201805461048e90611ab3565b80601f01602080910402602001604051908101604052809291908181526020018280546104ba90611ab3565b80156105075780601f106104dc57610100808354040283529160200191610507565b820191906000526020600020905b8154815290600101906020018083116104ea57829003601f168201915b505050505081526020016001820160009054906101000a900473ffffffffffffffffffffffffffffffffffffffff1673ffffffffffffffffffffffffffffffffffffffff1673ffffffffffffffffffffffffffffffffffffffff16815260200160028201548152602001600382015481526020016004820160009054906101000a900460ff1660028111156105c5577f4e487b7100000000000000000000000000000000000000000000000000000000600052602160045260246000fd5b60028111156105fd577f4e487b7100000000000000000000000000000000000000000000000000000000600052602160045260246000fd5b8152505090506000600281111561063d577f4e487b7100000000000000000000000000000000000000000000000000000000600052602160045260246000fd5b8160800151600281111561067a577f4e487b7100000000000000000000000000000000000000000000000000000000600052602160045260246000fd5b14156106bb576040517f08c379a00000000000000000000000000000000000000000000000000000000081526004016106b290611838565b60405180910390fd5b806020015173ffffffffffffffffffffffffffffffffffffffff1663a9059cbb336001600086815260200190815260200160002060003373ffffffffffffffffffffffffffffffffffffffff1673ffffffffffffffffffffffffffffffffffffffff168152602001908152602001600020546040518363ffffffff1660e01b815260040161074a929190611772565b602060405180830381600087803b15801561076457600080fd5b505af1158015610778573d6000803e3d6000fd5b505050506040513d601f19601f8201168201806040525081019061079c91906111de565b5060006001600084815260200190815260200160002060003373ffffffffffffffffffffffffffffffffffffffff1673ffffffffffffffffffffffffffffffffffffffff168152602001908152602001600020819055505050565b60004283833360405160200161081094939291906116f1565b60405160208183030381529060405280519060200120905092915050565b6060600080838152602001908152602001600020600001805461085090611ab3565b80601f016020809104026020016040519081016040528092919081815260200182805461087c90611ab3565b80156108c95780601f1061089e576101008083540402835291602001916108c9565b820191906000526020600020905b8154815290600101906020018083116108ac57829003601f168201915b50505050509050919050565b6000806000838152602001908152602001600020600201549050919050565b6000806000838152602001908152602001600020600301549050919050565b60008484848460405160200161092c949392919061167d565b6040516020818303038152906040528051906020012060405160200161095291906116cb565b604051602081830303815290604052805190602001209050949350505050565b60008060008781526020019081526020016000209050600060028111156109c2577f4e487b7100000000000000000000000000000000000000000000000000000000600052602160045260246000fd5b8160040160009054906101000a900460ff166002811115610a0c577f4e487b7100000000000000000000000000000000000000000000000000000000600052602160045260246000fd5b14610a4c576040517f08c379a0000000000000000000000000000000000000000000000000000000008152600401610a4390611878565b60405180910390fd5b610a5a338787878688610eaa565b610a99576040517f08c379a0000000000000000000000000000000000000000000000000000000008152600401610a9090611858565b60405180910390fd5b8060010160009054906101000a900473ffffffffffffffffffffffffffffffffffffffff1673ffffffffffffffffffffffffffffffffffffffff166323b872dd3330876040518463ffffffff1660e01b8152600401610afa9392919061173b565b602060405180830381600087803b158015610b1457600080fd5b505af1158015610b28573d6000803e3d6000fd5b505050506040513d601f19601f82011682018060405250810190610b4c91906111de565b50610bb0846001600089815260200190815260200160002060003373ffffffffffffffffffffffffffffffffffffffff1673ffffffffffffffffffffffffffffffffffffffff16815260200190815260200160002054610f0090919063ffffffff16565b6001600088815260200190815260200160002060003373ffffffffffffffffffffffffffffffffffffffff1673ffffffffffffffffffffffffffffffffffffffff168152602001908152602001600020819055508415610c2e57610c21848260020154610f0090919063ffffffff16565b8160020181905550610c4e565b610c45848260030154610f0090919063ffffffff16565b81600301819055505b505050505050565b6000806000838152602001908152602001600020905060006002811115610ca6577f4e487b7100000000000000000000000000000000000000000000000000000000600052602160045260246000fd5b8160040160009054906101000a900460ff166002811115610cf0577f4e487b7100000000000000000000000000000000000000000000000000000000600052602160045260246000fd5b14610d30576040517f08c379a0000000000000000000000000000000000000000000000000000000008152600401610d2790611878565b60405180910390fd5b600060028260010160009054906101000a900473ffffffffffffffffffffffffffffffffffffffff1673ffffffffffffffffffffffffffffffffffffffff166318160ddd6040518163ffffffff1660e01b815260040160206040518083038186803b158015610d9e57600080fd5b505afa158015610db2573d6000803e3d6000fd5b505050506040513d601f19601f82011682018060405250810190610dd691906113dd565b610de091906119e1565b905080826002015410610e455760018260040160006101000a81548160ff02191690836002811115610e3b577f4e487b7100000000000000000000000000000000000000000000000000000000600052602160045260246000fd5b0217905550610ea5565b80826003015410610ea45760028260040160006101000a81548160ff02191690836002811115610e9e577f4e487b7100000000000000000000000000000000000000000000000000000000600052602160045260246000fd5b02179055505b5b505050565b600080610eb987878787610913565b90508773ffffffffffffffffffffffffffffffffffffffff16610edc8285610f16565b73ffffffffffffffffffffffffffffffffffffffff16149150509695505050505050565b60008183610f0e919061198b565b905092915050565b600080600080610f2585610f85565b92509250925060018682858560405160008152602001604052604051610f4e94939291906117d1565b6020604051602081039080840390855afa158015610f70573d6000803e3d6000fd5b50505060206040510351935050505092915050565b60008060006041845114610fce576040517f08c379a0000000000000000000000000000000000000000000000000000000008152600401610fc590611898565b60405180910390fd5b6020840151925060408401519150606084015160001a90509193909250565b828054610ff990611ab3565b90600052602060002090601f01602090048101928261101b5760008555611062565b82601f1061103457805160ff1916838001178555611062565b82800160010185558215611062579182015b82811115611061578251825591602001919060010190611046565b5b50905061106f9190611073565b5090565b5b8082111561108c576000816000905550600101611074565b5090565b60006110a361109e84611904565b6118d3565b9050828152602081018484840111156110bb57600080fd5b6110c6848285611a71565b509392505050565b60006110e16110dc84611934565b6118d3565b9050828152602081018484840111156110f957600080fd5b611104848285611a71565b509392505050565b60008135905061111b81611c28565b92915050565b60008135905061113081611c3f565b92915050565b60008151905061114581611c3f565b92915050565b60008135905061115a81611c56565b92915050565b600082601f83011261117157600080fd5b8135611181848260208601611090565b91505092915050565b600082601f83011261119b57600080fd5b81356111ab8482602086016110ce565b91505092915050565b6000813590506111c381611c6d565b92915050565b6000815190506111d881611c6d565b92915050565b6000602082840312156111f057600080fd5b60006111fe84828501611136565b91505092915050565b60006020828403121561121957600080fd5b60006112278482850161114b565b91505092915050565b600080600080600060a0868803121561124857600080fd5b60006112568882890161114b565b955050602061126788828901611121565b9450506040611278888289016111b4565b935050606086013567ffffffffffffffff81111561129557600080fd5b6112a188828901611160565b92505060806112b2888289016111b4565b9150509295509295909350565b600080600080608085870312156112d557600080fd5b60006112e38782880161114b565b94505060206112f487828801611121565b9350506040611305878288016111b4565b9250506060611316878288016111b4565b91505092959194509250565b60008060006060848603121561133757600080fd5b60006113458682870161114b565b935050602084013567ffffffffffffffff81111561136257600080fd5b61136e8682870161118a565b925050604061137f8682870161110c565b9150509250925092565b6000806040838503121561139c57600080fd5b600083013567ffffffffffffffff8111156113b657600080fd5b6113c28582860161118a565b92505060206113d38582860161110c565b9150509250929050565b6000602082840312156113ef57600080fd5b60006113fd848285016111c9565b91505092915050565b61140f81611a12565b82525050565b61142661142182611a12565b611ae5565b82525050565b61143581611a24565b82525050565b61144c61144782611a24565b611af7565b82525050565b61145b81611a30565b82525050565b61147261146d82611a30565b611b09565b82525050565b600061148382611964565b61148d818561196f565b935061149d818560208601611a80565b6114a681611bfd565b840191505092915050565b60006114bc82611964565b6114c68185611980565b93506114d6818560208601611a80565b80840191505092915050565b60006114ef601f8361196f565b91507f4d6f74696f6e3a204d6f74696f6e207374696c6c20696e2070726f63657373006000830152602082019050919050565b600061152f60198361196f565b91507f4d6f74696f6e3a20496e76616c6964207369676e6174757265000000000000006000830152602082019050919050565b600061156f601c83611980565b91507f19457468657265756d205369676e6564204d6573736167653a0a3332000000006000830152601c82019050919050565b60006115af60298361196f565b91507f4d6f74696f6e3a204d6f74696f6e2068617320616c7265616479206265656e2060008301527f636f6d706c6574656400000000000000000000000000000000000000000000006020830152604082019050919050565b600061161560188361196f565b91507f696e76616c6964207369676e6174757265206c656e67746800000000000000006000830152602082019050919050565b61165181611a5a565b82525050565b61166861166382611a5a565b611b25565b82525050565b61167781611a64565b82525050565b60006116898287611461565b602082019150611699828661143b565b6001820191506116a98285611657565b6020820191506116b98284611657565b60208201915081905095945050505050565b60006116d682611562565b91506116e28284611461565b60208201915081905092915050565b60006116fd8287611657565b60208201915061170d82866114b1565b91506117198285611415565b6014820191506117298284611415565b60148201915081905095945050505050565b60006060820190506117506000830186611406565b61175d6020830185611406565b61176a6040830184611648565b949350505050565b60006040820190506117876000830185611406565b6117946020830184611648565b9392505050565b60006020820190506117b0600083018461142c565b92915050565b60006020820190506117cb6000830184611452565b92915050565b60006080820190506117e66000830187611452565b6117f3602083018661166e565b6118006040830185611452565b61180d6060830184611452565b95945050505050565b600060208201905081810360008301526118308184611478565b905092915050565b60006020820190508181036000830152611851816114e2565b9050919050565b6000602082019050818103600083015261187181611522565b9050919050565b60006020820190508181036000830152611891816115a2565b9050919050565b600060208201905081810360008301526118b181611608565b9050919050565b60006020820190506118cd6000830184611648565b92915050565b6000604051905081810181811067ffffffffffffffff821117156118fa576118f9611bce565b5b8060405250919050565b600067ffffffffffffffff82111561191f5761191e611bce565b5b601f19601f8301169050602081019050919050565b600067ffffffffffffffff82111561194f5761194e611bce565b5b601f19601f8301169050602081019050919050565b600081519050919050565b600082825260208201905092915050565b600081905092915050565b600061199682611a5a565b91506119a183611a5a565b9250827fffffffffffffffffffffffffffffffffffffffffffffffffffffffffffffffff038211156119d6576119d5611b41565b5b828201905092915050565b60006119ec82611a5a565b91506119f783611a5a565b925082611a0757611a06611b70565b5b828204905092915050565b6000611a1d82611a3a565b9050919050565b60008115159050919050565b6000819050919050565b600073ffffffffffffffffffffffffffffffffffffffff82169050919050565b6000819050919050565b600060ff82169050919050565b82818337600083830152505050565b60005b83811015611a9e578082015181840152602081019050611a83565b83811115611aad576000848401525b50505050565b60006002820490506001821680611acb57607f821691505b60208210811415611adf57611ade611b9f565b5b50919050565b6000611af082611b13565b9050919050565b6000611b0282611b2f565b9050919050565b6000819050919050565b6000611b1e82611c1b565b9050919050565b6000819050919050565b6000611b3a82611c0e565b9050919050565b7f4e487b7100000000000000000000000000000000000000000000000000000000600052601160045260246000fd5b7f4e487b7100000000000000000000000000000000000000000000000000000000600052601260045260246000fd5b7f4e487b7100000000000000000000000000000000000000000000000000000000600052602260045260246000fd5b7f4e487b7100000000000000000000000000000000000000000000000000000000600052604160045260246000fd5b6000601f19601f8301169050919050565b60008160f81b9050919050565b60008160601b9050919050565b611c3181611a12565b8114611c3c57600080fd5b50565b611c4881611a24565b8114611c5357600080fd5b50565b611c5f81611a30565b8114611c6a57600080fd5b50565b611c7681611a5a565b8114611c8157600080fd5b5056fea2646970667358221220027b4b6ef509256ad5051a35137b100e0b582533a1dd79005737122d720b67c564736f6c63430008000033",
  "linkReferences": {},
  "deployedLinkReferences": {}
}