{
  "_format": "hh-sol-artifact-1",
  "contractName": "Motion",
  "sourceName": "contracts/motion.sol",
  "abi": [
    {
      "anonymous": false,
      "inputs": [
        {
          "indexed": true,
          "internalType": "bytes32",
          "name": "key",
          "type": "bytes32"
        }
      ],
      "name": "MotionCreated",
      "type": "event"
    },
    {
      "inputs": [
        {
          "internalType": "bytes32",
          "name": "_key",
          "type": "bytes32"
        }
      ],
      "name": "countVote",
      "outputs": [],
      "stateMutability": "nonpayable",
      "type": "function"
    },
    {
      "inputs": [
        {
          "internalType": "string",
          "name": "_name",
          "type": "string"
        },
        {
          "internalType": "address",
          "name": "_tokenAddr",
          "type": "address"
        }
      ],
      "name": "createKey",
      "outputs": [
        {
          "internalType": "bytes32",
          "name": "",
          "type": "bytes32"
        }
      ],
      "stateMutability": "view",
      "type": "function"
    },
    {
      "inputs": [
        {
          "internalType": "bytes32",
          "name": "_key",
          "type": "bytes32"
        }
      ],
      "name": "getName",
      "outputs": [
        {
          "internalType": "string",
          "name": "",
          "type": "string"
        }
      ],
      "stateMutability": "view",
      "type": "function"
    },
    {
      "inputs": [
        {
          "internalType": "bytes32",
          "name": "_key",
          "type": "bytes32"
        }
      ],
      "name": "getNays",
      "outputs": [
        {
          "internalType": "uint256",
          "name": "",
          "type": "uint256"
        }
      ],
      "stateMutability": "view",
      "type": "function"
    },
    {
      "inputs": [
        {
          "internalType": "bytes32",
          "name": "_key",
          "type": "bytes32"
        }
      ],
      "name": "getYays",
      "outputs": [
        {
          "internalType": "uint256",
          "name": "",
          "type": "uint256"
        }
      ],
      "stateMutability": "view",
      "type": "function"
    },
    {
      "inputs": [
        {
          "internalType": "bytes32",
          "name": "_key",
          "type": "bytes32"
        }
      ],
      "name": "isCompleted",
      "outputs": [
        {
          "internalType": "bool",
          "name": "",
          "type": "bool"
        }
      ],
      "stateMutability": "view",
      "type": "function"
    },
    {
      "inputs": [
        {
          "internalType": "bytes32",
          "name": "_key",
          "type": "bytes32"
        },
        {
          "internalType": "string",
          "name": "_name",
          "type": "string"
        },
        {
          "internalType": "address",
          "name": "_tokenAddr",
          "type": "address"
        }
      ],
      "name": "proposeMotion",
      "outputs": [],
      "stateMutability": "nonpayable",
      "type": "function"
    },
    {
      "inputs": [
        {
          "internalType": "bytes32",
          "name": "_key",
          "type": "bytes32"
        }
      ],
      "name": "returnTokens",
      "outputs": [],
      "stateMutability": "nonpayable",
      "type": "function"
    },
    {
      "inputs": [
        {
          "internalType": "bytes32",
          "name": "_key",
          "type": "bytes32"
        },
        {
          "internalType": "bool",
          "name": "_for",
          "type": "bool"
        },
        {
          "internalType": "uint256",
          "name": "_tokens",
          "type": "uint256"
        }
      ],
      "name": "vote",
      "outputs": [],
      "stateMutability": "nonpayable",
      "type": "function"
    }
  ],
  "bytecode": "0x608060405234801561001057600080fd5b506119c4806100206000396000f3fe608060405234801561001057600080fd5b50600436106100935760003560e01c806354b8d5e31161006657806354b8d5e3146101305780636b844f2c146101605780638264567014610190578063d073a8fa146101c0578063d3c049d3146101dc57610093565b80630e5204971461009857806312cab545146100b45780633dfcd149146100e45780634a8e0f2814610100575b600080fd5b6100b260048036038101906100ad919061129a565b6101f8565b005b6100ce60048036038101906100c99190611222565b610385565b6040516100db91906115a2565b60405180910390f35b6100fe60048036038101906100f99190611222565b610424565b005b61011a60048036038101906101159190611301565b6107bc565b60405161012791906115bd565b60405180910390f35b61014a60048036038101906101459190611222565b6107f3565b60405161015791906115d8565b60405180910390f35b61017a60048036038101906101759190611222565b61089a565b604051610187919061163a565b60405180910390f35b6101aa60048036038101906101a59190611222565b6108b9565b6040516101b7919061163a565b60405180910390f35b6101da60048036038101906101d59190611222565b6108d8565b005b6101f660048036038101906101f1919061124b565b610dc5565b005b6040518060a001604052808381526020018273ffffffffffffffffffffffffffffffffffffffff16815260200160008152602001600081526020016000600281111561026d577f4e487b7100000000000000000000000000000000000000000000000000000000600052602160045260246000fd5b815250600080858152602001908152602001600020600082015181600001908051906020019061029e929190611070565b5060208201518160010160006101000a81548173ffffffffffffffffffffffffffffffffffffffff021916908373ffffffffffffffffffffffffffffffffffffffff160217905550604082015181600201556060820151816003015560808201518160040160006101000a81548160ff0219169083600281111561034b577f4e487b7100000000000000000000000000000000000000000000000000000000600052602160045260246000fd5b0217905550905050827fdc396f10375221dd1a9c697ed5e2a7864ef1eb3dc140071da067f4b2d74d001960405160405180910390a2505050565b60008060028111156103c0577f4e487b7100000000000000000000000000000000000000000000000000000000600052602160045260246000fd5b60008084815260200190815260200160002060040160009054906101000a900460ff16600281111561041b577f4e487b7100000000000000000000000000000000000000000000000000000000600052602160045260246000fd5b14159050919050565b60008060008381526020019081526020016000206040518060a0016040529081600082018054610453906117f8565b80601f016020809104026020016040519081016040528092919081815260200182805461047f906117f8565b80156104cc5780601f106104a1576101008083540402835291602001916104cc565b820191906000526020600020905b8154815290600101906020018083116104af57829003601f168201915b505050505081526020016001820160009054906101000a900473ffffffffffffffffffffffffffffffffffffffff1673ffffffffffffffffffffffffffffffffffffffff1673ffffffffffffffffffffffffffffffffffffffff16815260200160028201548152602001600382015481526020016004820160009054906101000a900460ff16600281111561058a577f4e487b7100000000000000000000000000000000000000000000000000000000600052602160045260246000fd5b60028111156105c2577f4e487b7100000000000000000000000000000000000000000000000000000000600052602160045260246000fd5b81525050905060006002811115610602577f4e487b7100000000000000000000000000000000000000000000000000000000600052602160045260246000fd5b8160800151600281111561063f577f4e487b7100000000000000000000000000000000000000000000000000000000600052602160045260246000fd5b1415610680576040517f08c379a0000000000000000000000000000000000000000000000000000000008152600401610677906115fa565b60405180910390fd5b806020015173ffffffffffffffffffffffffffffffffffffffff1663a9059cbb336001600086815260200190815260200160002060003373ffffffffffffffffffffffffffffffffffffffff1673ffffffffffffffffffffffffffffffffffffffff168152602001908152602001600020546040518363ffffffff1660e01b815260040161070f929190611579565b602060405180830381600087803b15801561072957600080fd5b505af115801561073d573d6000803e3d6000fd5b505050506040513d601f19601f8201168201806040525081019061076191906111f9565b5060006001600084815260200190815260200160002060003373ffffffffffffffffffffffffffffffffffffffff1673ffffffffffffffffffffffffffffffffffffffff168152602001908152602001600020819055505050565b6000428383336040516020016107d594939291906114f8565b60405160208183030381529060405280519060200120905092915050565b60606000808381526020019081526020016000206000018054610815906117f8565b80601f0160208091040260200160405190810160405280929190818152602001828054610841906117f8565b801561088e5780601f106108635761010080835404028352916020019161088e565b820191906000526020600020905b81548152906001019060200180831161087157829003601f168201915b50505050509050919050565b6000806000838152602001908152602001600020600201549050919050565b6000806000838152602001908152602001600020600301549050919050565b60008060008381526020019081526020016000206040518060a0016040529081600082018054610907906117f8565b80601f0160208091040260200160405190810160405280929190818152602001828054610933906117f8565b80156109805780601f1061095557610100808354040283529160200191610980565b820191906000526020600020905b81548152906001019060200180831161096357829003601f168201915b505050505081526020016001820160009054906101000a900473ffffffffffffffffffffffffffffffffffffffff1673ffffffffffffffffffffffffffffffffffffffff1673ffffffffffffffffffffffffffffffffffffffff16815260200160028201548152602001600382015481526020016004820160009054906101000a900460ff166002811115610a3e577f4e487b7100000000000000000000000000000000000000000000000000000000600052602160045260246000fd5b6002811115610a76577f4e487b7100000000000000000000000000000000000000000000000000000000600052602160045260246000fd5b81525050905060006002811115610ab6577f4e487b7100000000000000000000000000000000000000000000000000000000600052602160045260246000fd5b81608001516002811115610af3577f4e487b7100000000000000000000000000000000000000000000000000000000600052602160045260246000fd5b14610b33576040517f08c379a0000000000000000000000000000000000000000000000000000000008152600401610b2a9061161a565b60405180910390fd5b60006002826020015173ffffffffffffffffffffffffffffffffffffffff166318160ddd6040518163ffffffff1660e01b815260040160206040518083038186803b158015610b8157600080fd5b505afa158015610b95573d6000803e3d6000fd5b505050506040513d601f19601f82011682018060405250810190610bb99190611355565b610bc39190611733565b905080826040015110610c5257600182608001906002811115610c0f577f4e487b7100000000000000000000000000000000000000000000000000000000600052602160045260246000fd5b90816002811115610c49577f4e487b7100000000000000000000000000000000000000000000000000000000600052602160045260246000fd5b81525050610cdc565b80826060015110610cdb57600282608001906002811115610c9c577f4e487b7100000000000000000000000000000000000000000000000000000000600052602160045260246000fd5b90816002811115610cd6577f4e487b7100000000000000000000000000000000000000000000000000000000600052602160045260246000fd5b815250505b5b816000808581526020019081526020016000206000820151816000019080519060200190610d0b929190611070565b5060208201518160010160006101000a81548173ffffffffffffffffffffffffffffffffffffffff021916908373ffffffffffffffffffffffffffffffffffffffff160217905550604082015181600201556060820151816003015560808201518160040160006101000a81548160ff02191690836002811115610db8577f4e487b7100000000000000000000000000000000000000000000000000000000600052602160045260246000fd5b0217905550905050505050565b6000806000858152602001908152602001600020905060006002811115610e15577f4e487b7100000000000000000000000000000000000000000000000000000000600052602160045260246000fd5b8160040160009054906101000a900460ff166002811115610e5f577f4e487b7100000000000000000000000000000000000000000000000000000000600052602160045260246000fd5b14610e9f576040517f08c379a0000000000000000000000000000000000000000000000000000000008152600401610e969061161a565b60405180910390fd5b8060010160009054906101000a900473ffffffffffffffffffffffffffffffffffffffff1673ffffffffffffffffffffffffffffffffffffffff166323b872dd3330856040518463ffffffff1660e01b8152600401610f0093929190611542565b602060405180830381600087803b158015610f1a57600080fd5b505af1158015610f2e573d6000803e3d6000fd5b505050506040513d601f19601f82011682018060405250810190610f5291906111f9565b50610fb6826001600087815260200190815260200160002060003373ffffffffffffffffffffffffffffffffffffffff1673ffffffffffffffffffffffffffffffffffffffff1681526020019081526020016000205461105a90919063ffffffff16565b6001600086815260200190815260200160002060003373ffffffffffffffffffffffffffffffffffffffff1673ffffffffffffffffffffffffffffffffffffffff1681526020019081526020016000208190555082156110345761102782826002015461105a90919063ffffffff16565b8160020181905550611054565b61104b82826003015461105a90919063ffffffff16565b81600301819055505b50505050565b6000818361106891906116dd565b905092915050565b82805461107c906117f8565b90600052602060002090601f01602090048101928261109e57600085556110e5565b82601f106110b757805160ff19168380011785556110e5565b828001600101855582156110e5579182015b828111156110e45782518255916020019190600101906110c9565b5b5090506110f291906110f6565b5090565b5b8082111561110f5760008160009055506001016110f7565b5090565b600061112661112184611686565b611655565b90508281526020810184848401111561113e57600080fd5b6111498482856117b6565b509392505050565b60008135905061116081611932565b92915050565b60008135905061117581611949565b92915050565b60008151905061118a81611949565b92915050565b60008135905061119f81611960565b92915050565b600082601f8301126111b657600080fd5b81356111c6848260208601611113565b91505092915050565b6000813590506111de81611977565b92915050565b6000815190506111f381611977565b92915050565b60006020828403121561120b57600080fd5b60006112198482850161117b565b91505092915050565b60006020828403121561123457600080fd5b600061124284828501611190565b91505092915050565b60008060006060848603121561126057600080fd5b600061126e86828701611190565b935050602061127f86828701611166565b9250506040611290868287016111cf565b9150509250925092565b6000806000606084860312156112af57600080fd5b60006112bd86828701611190565b935050602084013567ffffffffffffffff8111156112da57600080fd5b6112e6868287016111a5565b92505060406112f786828701611151565b9150509250925092565b6000806040838503121561131457600080fd5b600083013567ffffffffffffffff81111561132e57600080fd5b61133a858286016111a5565b925050602061134b85828601611151565b9150509250929050565b60006020828403121561136757600080fd5b6000611375848285016111e4565b91505092915050565b61138781611764565b82525050565b61139e61139982611764565b61182a565b82525050565b6113ad81611776565b82525050565b6113bc81611782565b82525050565b60006113cd826116b6565b6113d781856116c1565b93506113e78185602086016117c5565b6113f081611914565b840191505092915050565b6000611406826116b6565b61141081856116d2565b93506114208185602086016117c5565b80840191505092915050565b60006114396017836116c1565b91507f4d6f74696f6e207374696c6c20696e2070726f636573730000000000000000006000830152602082019050919050565b60006114796021836116c1565b91507f4d6f74696f6e2068617320616c7265616479206265656e20636f6d706c65746560008301527f64000000000000000000000000000000000000000000000000000000000000006020830152604082019050919050565b6114db816117ac565b82525050565b6114f26114ed826117ac565b61184e565b82525050565b600061150482876114e1565b60208201915061151482866113fb565b9150611520828561138d565b601482019150611530828461138d565b60148201915081905095945050505050565b6000606082019050611557600083018661137e565b611564602083018561137e565b61157160408301846114d2565b949350505050565b600060408201905061158e600083018561137e565b61159b60208301846114d2565b9392505050565b60006020820190506115b760008301846113a4565b92915050565b60006020820190506115d260008301846113b3565b92915050565b600060208201905081810360008301526115f281846113c2565b905092915050565b600060208201905081810360008301526116138161142c565b9050919050565b600060208201905081810360008301526116338161146c565b9050919050565b600060208201905061164f60008301846114d2565b92915050565b6000604051905081810181811067ffffffffffffffff8211171561167c5761167b6118e5565b5b8060405250919050565b600067ffffffffffffffff8211156116a1576116a06118e5565b5b601f19601f8301169050602081019050919050565b600081519050919050565b600082825260208201905092915050565b600081905092915050565b60006116e8826117ac565b91506116f3836117ac565b9250827fffffffffffffffffffffffffffffffffffffffffffffffffffffffffffffffff0382111561172857611727611858565b5b828201905092915050565b600061173e826117ac565b9150611749836117ac565b92508261175957611758611887565b5b828204905092915050565b600061176f8261178c565b9050919050565b60008115159050919050565b6000819050919050565b600073ffffffffffffffffffffffffffffffffffffffff82169050919050565b6000819050919050565b82818337600083830152505050565b60005b838110156117e35780820151818401526020810190506117c8565b838111156117f2576000848401525b50505050565b6000600282049050600182168061181057607f821691505b60208210811415611824576118236118b6565b5b50919050565b60006118358261183c565b9050919050565b600061184782611925565b9050919050565b6000819050919050565b7f4e487b7100000000000000000000000000000000000000000000000000000000600052601160045260246000fd5b7f4e487b7100000000000000000000000000000000000000000000000000000000600052601260045260246000fd5b7f4e487b7100000000000000000000000000000000000000000000000000000000600052602260045260246000fd5b7f4e487b7100000000000000000000000000000000000000000000000000000000600052604160045260246000fd5b6000601f19601f8301169050919050565b60008160601b9050919050565b61193b81611764565b811461194657600080fd5b50565b61195281611776565b811461195d57600080fd5b50565b61196981611782565b811461197457600080fd5b50565b611980816117ac565b811461198b57600080fd5b5056fea2646970667358221220e4f396d7c64c75b904f9fd3a1540c71a5628d6c99f7dd569b54f3f706540c1cb64736f6c63430008000033",
  "linkReferences": {},
  "deployedLinkReferences": {}
}