{
  "_format": "hh-sol-artifact-1",
  "contractName": "Motion",
  "sourceName": "contracts/motion.sol",
  "abi": [
    {
      "anonymous": false,
      "inputs": [
        {
          "indexed": true,
          "internalType": "string",
          "name": "_name",
          "type": "string"
        },
        {
          "indexed": true,
          "internalType": "bytes32",
          "name": "key",
          "type": "bytes32"
        }
      ],
      "name": "MotionProposed",
      "type": "event"
    },
    {
      "inputs": [
        {
          "internalType": "bytes32",
          "name": "_key",
          "type": "bytes32"
        }
      ],
      "name": "getName",
      "outputs": [
        {
          "internalType": "string",
          "name": "",
          "type": "string"
        }
      ],
      "stateMutability": "view",
      "type": "function"
    },
    {
      "inputs": [
        {
          "internalType": "bytes32",
          "name": "_key",
          "type": "bytes32"
        }
      ],
      "name": "getNays",
      "outputs": [
        {
          "internalType": "uint256",
          "name": "",
          "type": "uint256"
        }
      ],
      "stateMutability": "view",
      "type": "function"
    },
    {
      "inputs": [
        {
          "internalType": "bytes32",
          "name": "_key",
          "type": "bytes32"
        }
      ],
      "name": "getYays",
      "outputs": [
        {
          "internalType": "uint256",
          "name": "",
          "type": "uint256"
        }
      ],
      "stateMutability": "view",
      "type": "function"
    },
    {
      "inputs": [
        {
          "internalType": "string",
          "name": "_name",
          "type": "string"
        },
        {
          "internalType": "address",
          "name": "_token",
          "type": "address"
        }
      ],
      "name": "proposeMotion",
      "outputs": [
        {
          "internalType": "bytes32",
          "name": "",
          "type": "bytes32"
        }
      ],
      "stateMutability": "nonpayable",
      "type": "function"
    },
    {
      "inputs": [
        {
          "internalType": "bytes32",
          "name": "_key",
          "type": "bytes32"
        },
        {
          "internalType": "bool",
          "name": "_for",
          "type": "bool"
        }
      ],
      "name": "vote",
      "outputs": [],
      "stateMutability": "payable",
      "type": "function"
    }
  ],
  "bytecode": "0x608060405234801561001057600080fd5b50610df3806100206000396000f3fe60806040526004361061004a5760003560e01c806354b8d5e31461004f5780635d9767c81461008c5780636b844f2c146100c957806382645670146101065780639f2ce67814610143575b600080fd5b34801561005b57600080fd5b506100766004803603810190610071919061087a565b61015f565b6040516100839190610aa7565b60405180910390f35b34801561009857600080fd5b506100b360048036038101906100ae91906108df565b610206565b6040516100c09190610a8c565b60405180910390f35b3480156100d557600080fd5b506100f060048036038101906100eb919061087a565b6103de565b6040516100fd9190610ac9565b60405180910390f35b34801561011257600080fd5b5061012d6004803603810190610128919061087a565b6103fd565b60405161013a9190610ac9565b60405180910390f35b61015d600480360381019061015891906108a3565b61041c565b005b6060600080838152602001908152602001600020600001805461018190610c56565b80601f01602080910402602001604051908101604052809291908181526020018280546101ad90610c56565b80156101fa5780601f106101cf576101008083540402835291602001916101fa565b820191906000526020600020905b8154815290600101906020018083116101dd57829003601f168201915b50505050509050919050565b60008042843360405160200161021e93929190610a38565b6040516020818303038152906040528051906020012090506040518060a001604052808581526020018473ffffffffffffffffffffffffffffffffffffffff1681526020016000815260200160008152602001600060028111156102ab577f4e487b7100000000000000000000000000000000000000000000000000000000600052602160045260246000fd5b81525060008083815260200190815260200160002060008201518160000190805190602001906102dc92919061071b565b5060208201518160010160006101000a81548173ffffffffffffffffffffffffffffffffffffffff021916908373ffffffffffffffffffffffffffffffffffffffff160217905550604082015181600201556060820151816003015560808201518160040160006101000a81548160ff02191690836002811115610389577f4e487b7100000000000000000000000000000000000000000000000000000000600052602160045260246000fd5b021790555090505080846040516103a09190610a21565b60405180910390207fa855548ff7670ce55fa385973857cbe3be0c47b4570ff6c74838978b0f6c84a860405160405180910390a38091505092915050565b6000806000838152602001908152602001600020600201549050919050565b6000806000838152602001908152602001600020600301549050919050565b60008060008481526020019081526020016000206040518060a001604052908160008201805461044b90610c56565b80601f016020809104026020016040519081016040528092919081815260200182805461047790610c56565b80156104c45780601f10610499576101008083540402835291602001916104c4565b820191906000526020600020905b8154815290600101906020018083116104a757829003601f168201915b505050505081526020016001820160009054906101000a900473ffffffffffffffffffffffffffffffffffffffff1673ffffffffffffffffffffffffffffffffffffffff1673ffffffffffffffffffffffffffffffffffffffff16815260200160028201548152602001600382015481526020016004820160009054906101000a900460ff166002811115610582577f4e487b7100000000000000000000000000000000000000000000000000000000600052602160045260246000fd5b60028111156105ba577f4e487b7100000000000000000000000000000000000000000000000000000000600052602160045260246000fd5b815250509050811561067057806020015173ffffffffffffffffffffffffffffffffffffffff166370a08231336040518263ffffffff1660e01b81526004016106039190610a71565b60206040518083038186803b15801561061b57600080fd5b505afa15801561062f573d6000803e3d6000fd5b505050506040513d601f19601f820116820180604052508101906106539190610933565b816040018181516106649190610b6c565b91508181525050610716565b806020015173ffffffffffffffffffffffffffffffffffffffff166370a08231336040518263ffffffff1660e01b81526004016106ad9190610a71565b60206040518083038186803b1580156106c557600080fd5b505afa1580156106d9573d6000803e3d6000fd5b505050506040513d601f19601f820116820180604052508101906106fd9190610933565b8160600181815161070e9190610b6c565b915081815250505b505050565b82805461072790610c56565b90600052602060002090601f0160209004810192826107495760008555610790565b82601f1061076257805160ff1916838001178555610790565b82800160010185558215610790579182015b8281111561078f578251825591602001919060010190610774565b5b50905061079d91906107a1565b5090565b5b808211156107ba5760008160009055506001016107a2565b5090565b60006107d16107cc84610b15565b610ae4565b9050828152602081018484840111156107e957600080fd5b6107f4848285610c14565b509392505050565b60008135905061080b81610d61565b92915050565b60008135905061082081610d78565b92915050565b60008135905061083581610d8f565b92915050565b600082601f83011261084c57600080fd5b813561085c8482602086016107be565b91505092915050565b60008151905061087481610da6565b92915050565b60006020828403121561088c57600080fd5b600061089a84828501610826565b91505092915050565b600080604083850312156108b657600080fd5b60006108c485828601610826565b92505060206108d585828601610811565b9150509250929050565b600080604083850312156108f257600080fd5b600083013567ffffffffffffffff81111561090c57600080fd5b6109188582860161083b565b9250506020610929858286016107fc565b9150509250929050565b60006020828403121561094557600080fd5b600061095384828501610865565b91505092915050565b61096581610bc2565b82525050565b61097c61097782610bc2565b610c88565b82525050565b61098b81610be0565b82525050565b600061099c82610b45565b6109a68185610b50565b93506109b6818560208601610c23565b6109bf81610d43565b840191505092915050565b60006109d582610b45565b6109df8185610b61565b93506109ef818560208601610c23565b80840191505092915050565b610a0481610c0a565b82525050565b610a1b610a1682610c0a565b610cac565b82525050565b6000610a2d82846109ca565b915081905092915050565b6000610a448286610a0a565b602082019150610a5482856109ca565b9150610a60828461096b565b601482019150819050949350505050565b6000602082019050610a86600083018461095c565b92915050565b6000602082019050610aa16000830184610982565b92915050565b60006020820190508181036000830152610ac18184610991565b905092915050565b6000602082019050610ade60008301846109fb565b92915050565b6000604051905081810181811067ffffffffffffffff82111715610b0b57610b0a610d14565b5b8060405250919050565b600067ffffffffffffffff821115610b3057610b2f610d14565b5b601f19601f8301169050602081019050919050565b600081519050919050565b600082825260208201905092915050565b600081905092915050565b6000610b7782610c0a565b9150610b8283610c0a565b9250827fffffffffffffffffffffffffffffffffffffffffffffffffffffffffffffffff03821115610bb757610bb6610cb6565b5b828201905092915050565b6000610bcd82610bea565b9050919050565b60008115159050919050565b6000819050919050565b600073ffffffffffffffffffffffffffffffffffffffff82169050919050565b6000819050919050565b82818337600083830152505050565b60005b83811015610c41578082015181840152602081019050610c26565b83811115610c50576000848401525b50505050565b60006002820490506001821680610c6e57607f821691505b60208210811415610c8257610c81610ce5565b5b50919050565b6000610c9382610c9a565b9050919050565b6000610ca582610d54565b9050919050565b6000819050919050565b7f4e487b7100000000000000000000000000000000000000000000000000000000600052601160045260246000fd5b7f4e487b7100000000000000000000000000000000000000000000000000000000600052602260045260246000fd5b7f4e487b7100000000000000000000000000000000000000000000000000000000600052604160045260246000fd5b6000601f19601f8301169050919050565b60008160601b9050919050565b610d6a81610bc2565b8114610d7557600080fd5b50565b610d8181610bd4565b8114610d8c57600080fd5b50565b610d9881610be0565b8114610da357600080fd5b50565b610daf81610c0a565b8114610dba57600080fd5b5056fea264697066735822122006b5e03313a0a201f261227a01b4267072a6b31a37146162fdfa91328afd229664736f6c63430008000033",
  "linkReferences": {},
  "deployedLinkReferences": {}
}