{
  "_format": "hh-sol-artifact-1",
  "contractName": "Motion",
  "sourceName": "contracts/motion.sol",
  "abi": [
    {
      "anonymous": false,
      "inputs": [
        {
          "indexed": true,
          "internalType": "bytes32",
          "name": "key",
          "type": "bytes32"
        }
      ],
      "name": "MotionCreated",
      "type": "event"
    },
    {
      "inputs": [
        {
          "internalType": "bytes32",
          "name": "_key",
          "type": "bytes32"
        }
      ],
      "name": "countVote",
      "outputs": [],
      "stateMutability": "nonpayable",
      "type": "function"
    },
    {
      "inputs": [
        {
          "internalType": "string",
          "name": "_name",
          "type": "string"
        },
        {
          "internalType": "address",
          "name": "_tokenAddr",
          "type": "address"
        }
      ],
      "name": "createKey",
      "outputs": [
        {
          "internalType": "bytes32",
          "name": "",
          "type": "bytes32"
        }
      ],
      "stateMutability": "view",
      "type": "function"
    },
    {
      "inputs": [
        {
          "internalType": "bytes32",
          "name": "_key",
          "type": "bytes32"
        }
      ],
      "name": "getName",
      "outputs": [
        {
          "internalType": "string",
          "name": "",
          "type": "string"
        }
      ],
      "stateMutability": "view",
      "type": "function"
    },
    {
      "inputs": [
        {
          "internalType": "bytes32",
          "name": "_key",
          "type": "bytes32"
        }
      ],
      "name": "getNays",
      "outputs": [
        {
          "internalType": "uint256",
          "name": "",
          "type": "uint256"
        }
      ],
      "stateMutability": "view",
      "type": "function"
    },
    {
      "inputs": [
        {
          "internalType": "bytes32",
          "name": "_key",
          "type": "bytes32"
        },
        {
          "internalType": "bool",
          "name": "_for",
          "type": "bool"
        },
        {
          "internalType": "uint256",
          "name": "_tokens",
          "type": "uint256"
        },
        {
          "internalType": "uint256",
          "name": "_nonce",
          "type": "uint256"
        }
      ],
      "name": "getSignedMsgHash",
      "outputs": [
        {
          "internalType": "bytes32",
          "name": "",
          "type": "bytes32"
        }
      ],
      "stateMutability": "pure",
      "type": "function"
    },
    {
      "inputs": [
        {
          "internalType": "bytes32",
          "name": "_key",
          "type": "bytes32"
        }
      ],
      "name": "getYays",
      "outputs": [
        {
          "internalType": "uint256",
          "name": "",
          "type": "uint256"
        }
      ],
      "stateMutability": "view",
      "type": "function"
    },
    {
      "inputs": [
        {
          "internalType": "bytes32",
          "name": "_key",
          "type": "bytes32"
        }
      ],
      "name": "isCompleted",
      "outputs": [
        {
          "internalType": "bool",
          "name": "",
          "type": "bool"
        }
      ],
      "stateMutability": "view",
      "type": "function"
    },
    {
      "inputs": [
        {
          "internalType": "bytes32",
          "name": "_key",
          "type": "bytes32"
        },
        {
          "internalType": "string",
          "name": "_name",
          "type": "string"
        },
        {
          "internalType": "address",
          "name": "_tokenAddr",
          "type": "address"
        }
      ],
      "name": "proposeMotion",
      "outputs": [],
      "stateMutability": "nonpayable",
      "type": "function"
    },
    {
      "inputs": [
        {
          "internalType": "bytes32",
          "name": "_key",
          "type": "bytes32"
        }
      ],
      "name": "returnTokens",
      "outputs": [],
      "stateMutability": "nonpayable",
      "type": "function"
    },
    {
      "inputs": [
        {
          "internalType": "bytes32",
          "name": "_key",
          "type": "bytes32"
        },
        {
          "internalType": "bool",
          "name": "_for",
          "type": "bool"
        },
        {
          "internalType": "uint256",
          "name": "_tokens",
          "type": "uint256"
        },
        {
          "internalType": "bytes",
          "name": "signature",
          "type": "bytes"
        },
        {
          "internalType": "uint256",
          "name": "_nonce",
          "type": "uint256"
        }
      ],
      "name": "vote",
      "outputs": [],
      "stateMutability": "nonpayable",
      "type": "function"
    }
  ],
  "bytecode": "0x608060405234801561001057600080fd5b50611df8806100206000396000f3fe608060405234801561001057600080fd5b506004361061009e5760003560e01c80636b844f2c116100665780636b844f2c1461016b578063826456701461019b5780639e816943146101cb578063b99506cc146101fb578063d073a8fa146102175761009e565b80630e520497146100a357806312cab545146100bf5780633dfcd149146100ef5780634a8e0f281461010b57806354b8d5e31461013b575b600080fd5b6100bd60048036038101906100b89190611460565b610233565b005b6100d960048036038101906100d49190611345565b61043c565b6040516100e691906118d9565b60405180910390f35b61010960048036038101906101049190611345565b6104db565b005b610125600480360381019061012091906114c7565b610873565b60405161013291906118f4565b60405180910390f35b61015560048036038101906101509190611345565b6108aa565b6040516101629190611954565b60405180910390f35b61018560048036038101906101809190611345565b610951565b60405161019291906119f6565b60405180910390f35b6101b560048036038101906101b09190611345565b610970565b6040516101c291906119f6565b60405180910390f35b6101e560048036038101906101e091906113fd565b61098f565b6040516101f291906118f4565b60405180910390f35b6102156004803603810190610210919061136e565b6109ee565b005b610231600480360381019061022c9190611345565b610cd2565b005b6102716040518060400160405280601181526020017f676f7420696e746f2066756e6374696f6e000000000000000000000000000000815250610f26565b6040518060a001604052808381526020018273ffffffffffffffffffffffffffffffffffffffff1681526020016000815260200160008152602001600060028111156102e6577f4e487b7100000000000000000000000000000000000000000000000000000000600052602160045260246000fd5b815250600080858152602001908152602001600020600082015181600001908051906020019061031792919061112b565b5060208201518160010160006101000a81548173ffffffffffffffffffffffffffffffffffffffff021916908373ffffffffffffffffffffffffffffffffffffffff160217905550604082015181600201556060820151816003015560808201518160040160006101000a81548160ff021916908360028111156103c4577f4e487b7100000000000000000000000000000000000000000000000000000000600052602160045260246000fd5b021790555090505061040a6040518060400160405280601181526020017f676f7420706173742066756e6374696f6e000000000000000000000000000000815250610f26565b827fdc396f10375221dd1a9c697ed5e2a7864ef1eb3dc140071da067f4b2d74d001960405160405180910390a2505050565b6000806002811115610477577f4e487b7100000000000000000000000000000000000000000000000000000000600052602160045260246000fd5b60008084815260200190815260200160002060040160009054906101000a900460ff1660028111156104d2577f4e487b7100000000000000000000000000000000000000000000000000000000600052602160045260246000fd5b14159050919050565b60008060008381526020019081526020016000206040518060a001604052908160008201805461050a90611bf1565b80601f016020809104026020016040519081016040528092919081815260200182805461053690611bf1565b80156105835780601f1061055857610100808354040283529160200191610583565b820191906000526020600020905b81548152906001019060200180831161056657829003601f168201915b505050505081526020016001820160009054906101000a900473ffffffffffffffffffffffffffffffffffffffff1673ffffffffffffffffffffffffffffffffffffffff1673ffffffffffffffffffffffffffffffffffffffff16815260200160028201548152602001600382015481526020016004820160009054906101000a900460ff166002811115610641577f4e487b7100000000000000000000000000000000000000000000000000000000600052602160045260246000fd5b6002811115610679577f4e487b7100000000000000000000000000000000000000000000000000000000600052602160045260246000fd5b815250509050600060028111156106b9577f4e487b7100000000000000000000000000000000000000000000000000000000600052602160045260246000fd5b816080015160028111156106f6577f4e487b7100000000000000000000000000000000000000000000000000000000600052602160045260246000fd5b1415610737576040517f08c379a000000000000000000000000000000000000000000000000000000000815260040161072e90611976565b60405180910390fd5b806020015173ffffffffffffffffffffffffffffffffffffffff1663a9059cbb336001600086815260200190815260200160002060003373ffffffffffffffffffffffffffffffffffffffff1673ffffffffffffffffffffffffffffffffffffffff168152602001908152602001600020546040518363ffffffff1660e01b81526004016107c69291906118b0565b602060405180830381600087803b1580156107e057600080fd5b505af11580156107f4573d6000803e3d6000fd5b505050506040513d601f19601f82011682018060405250810190610818919061131c565b5060006001600084815260200190815260200160002060003373ffffffffffffffffffffffffffffffffffffffff1673ffffffffffffffffffffffffffffffffffffffff168152602001908152602001600020819055505050565b60004283833360405160200161088c949392919061182f565b60405160208183030381529060405280519060200120905092915050565b606060008083815260200190815260200160002060000180546108cc90611bf1565b80601f01602080910402602001604051908101604052809291908181526020018280546108f890611bf1565b80156109455780601f1061091a57610100808354040283529160200191610945565b820191906000526020600020905b81548152906001019060200180831161092857829003601f168201915b50505050509050919050565b6000806000838152602001908152602001600020600201549050919050565b6000806000838152602001908152602001600020600301549050919050565b6000848484846040516020016109a894939291906117bb565b604051602081830303815290604052805190602001206040516020016109ce9190611809565b604051602081830303815290604052805190602001209050949350505050565b6000806000878152602001908152602001600020905060006002811115610a3e577f4e487b7100000000000000000000000000000000000000000000000000000000600052602160045260246000fd5b8160040160009054906101000a900460ff166002811115610a88577f4e487b7100000000000000000000000000000000000000000000000000000000600052602160045260246000fd5b14610ac8576040517f08c379a0000000000000000000000000000000000000000000000000000000008152600401610abf906119b6565b60405180910390fd5b610ad6338787878688610fbf565b610b15576040517f08c379a0000000000000000000000000000000000000000000000000000000008152600401610b0c90611996565b60405180910390fd5b8060010160009054906101000a900473ffffffffffffffffffffffffffffffffffffffff1673ffffffffffffffffffffffffffffffffffffffff166323b872dd3330876040518463ffffffff1660e01b8152600401610b7693929190611879565b602060405180830381600087803b158015610b9057600080fd5b505af1158015610ba4573d6000803e3d6000fd5b505050506040513d601f19601f82011682018060405250810190610bc8919061131c565b50610c2c846001600089815260200190815260200160002060003373ffffffffffffffffffffffffffffffffffffffff1673ffffffffffffffffffffffffffffffffffffffff1681526020019081526020016000205461101590919063ffffffff16565b6001600088815260200190815260200160002060003373ffffffffffffffffffffffffffffffffffffffff1673ffffffffffffffffffffffffffffffffffffffff168152602001908152602001600020819055508415610caa57610c9d84826002015461101590919063ffffffff16565b8160020181905550610cca565b610cc184826003015461101590919063ffffffff16565b81600301819055505b505050505050565b6000806000838152602001908152602001600020905060006002811115610d22577f4e487b7100000000000000000000000000000000000000000000000000000000600052602160045260246000fd5b8160040160009054906101000a900460ff166002811115610d6c577f4e487b7100000000000000000000000000000000000000000000000000000000600052602160045260246000fd5b14610dac576040517f08c379a0000000000000000000000000000000000000000000000000000000008152600401610da3906119b6565b60405180910390fd5b600060028260010160009054906101000a900473ffffffffffffffffffffffffffffffffffffffff1673ffffffffffffffffffffffffffffffffffffffff166318160ddd6040518163ffffffff1660e01b815260040160206040518083038186803b158015610e1a57600080fd5b505afa158015610e2e573d6000803e3d6000fd5b505050506040513d601f19601f82011682018060405250810190610e52919061151b565b610e5c9190611b1f565b905080826002015410610ec15760018260040160006101000a81548160ff02191690836002811115610eb7577f4e487b7100000000000000000000000000000000000000000000000000000000600052602160045260246000fd5b0217905550610f21565b80826003015410610f205760028260040160006101000a81548160ff02191690836002811115610f1a577f4e487b7100000000000000000000000000000000000000000000000000000000600052602160045260246000fd5b02179055505b5b505050565b610fbc81604051602401610f3a9190611954565b6040516020818303038152906040527f41304fac000000000000000000000000000000000000000000000000000000007bffffffffffffffffffffffffffffffffffffffffffffffffffffffff19166020820180517bffffffffffffffffffffffffffffffffffffffffffffffffffffffff838183161783525050505061102b565b50565b600080610fce8787878761098f565b90508773ffffffffffffffffffffffffffffffffffffffff16610ff18285611054565b73ffffffffffffffffffffffffffffffffffffffff16149150509695505050505050565b600081836110239190611ac9565b905092915050565b60008151905060006a636f6e736f6c652e6c6f679050602083016000808483855afa5050505050565b600080600080611063856110c3565b9250925092506001868285856040516000815260200160405260405161108c949392919061190f565b6020604051602081039080840390855afa1580156110ae573d6000803e3d6000fd5b50505060206040510351935050505092915050565b6000806000604184511461110c576040517f08c379a0000000000000000000000000000000000000000000000000000000008152600401611103906119d6565b60405180910390fd5b6020840151925060408401519150606084015160001a90509193909250565b82805461113790611bf1565b90600052602060002090601f01602090048101928261115957600085556111a0565b82601f1061117257805160ff19168380011785556111a0565b828001600101855582156111a0579182015b8281111561119f578251825591602001919060010190611184565b5b5090506111ad91906111b1565b5090565b5b808211156111ca5760008160009055506001016111b2565b5090565b60006111e16111dc84611a42565b611a11565b9050828152602081018484840111156111f957600080fd5b611204848285611baf565b509392505050565b600061121f61121a84611a72565b611a11565b90508281526020810184848401111561123757600080fd5b611242848285611baf565b509392505050565b60008135905061125981611d66565b92915050565b60008135905061126e81611d7d565b92915050565b60008151905061128381611d7d565b92915050565b60008135905061129881611d94565b92915050565b600082601f8301126112af57600080fd5b81356112bf8482602086016111ce565b91505092915050565b600082601f8301126112d957600080fd5b81356112e984826020860161120c565b91505092915050565b60008135905061130181611dab565b92915050565b60008151905061131681611dab565b92915050565b60006020828403121561132e57600080fd5b600061133c84828501611274565b91505092915050565b60006020828403121561135757600080fd5b600061136584828501611289565b91505092915050565b600080600080600060a0868803121561138657600080fd5b600061139488828901611289565b95505060206113a58882890161125f565b94505060406113b6888289016112f2565b935050606086013567ffffffffffffffff8111156113d357600080fd5b6113df8882890161129e565b92505060806113f0888289016112f2565b9150509295509295909350565b6000806000806080858703121561141357600080fd5b600061142187828801611289565b94505060206114328782880161125f565b9350506040611443878288016112f2565b9250506060611454878288016112f2565b91505092959194509250565b60008060006060848603121561147557600080fd5b600061148386828701611289565b935050602084013567ffffffffffffffff8111156114a057600080fd5b6114ac868287016112c8565b92505060406114bd8682870161124a565b9150509250925092565b600080604083850312156114da57600080fd5b600083013567ffffffffffffffff8111156114f457600080fd5b611500858286016112c8565b92505060206115118582860161124a565b9150509250929050565b60006020828403121561152d57600080fd5b600061153b84828501611307565b91505092915050565b61154d81611b50565b82525050565b61156461155f82611b50565b611c23565b82525050565b61157381611b62565b82525050565b61158a61158582611b62565b611c35565b82525050565b61159981611b6e565b82525050565b6115b06115ab82611b6e565b611c47565b82525050565b60006115c182611aa2565b6115cb8185611aad565b93506115db818560208601611bbe565b6115e481611d3b565b840191505092915050565b60006115fa82611aa2565b6116048185611abe565b9350611614818560208601611bbe565b80840191505092915050565b600061162d601f83611aad565b91507f4d6f74696f6e3a204d6f74696f6e207374696c6c20696e2070726f63657373006000830152602082019050919050565b600061166d601983611aad565b91507f4d6f74696f6e3a20496e76616c6964207369676e6174757265000000000000006000830152602082019050919050565b60006116ad601c83611abe565b91507f19457468657265756d205369676e6564204d6573736167653a0a3332000000006000830152601c82019050919050565b60006116ed602983611aad565b91507f4d6f74696f6e3a204d6f74696f6e2068617320616c7265616479206265656e2060008301527f636f6d706c6574656400000000000000000000000000000000000000000000006020830152604082019050919050565b6000611753601883611aad565b91507f696e76616c6964207369676e6174757265206c656e67746800000000000000006000830152602082019050919050565b61178f81611b98565b82525050565b6117a66117a182611b98565b611c63565b82525050565b6117b581611ba2565b82525050565b60006117c7828761159f565b6020820191506117d78286611579565b6001820191506117e78285611795565b6020820191506117f78284611795565b60208201915081905095945050505050565b6000611814826116a0565b9150611820828461159f565b60208201915081905092915050565b600061183b8287611795565b60208201915061184b82866115ef565b91506118578285611553565b6014820191506118678284611553565b60148201915081905095945050505050565b600060608201905061188e6000830186611544565b61189b6020830185611544565b6118a86040830184611786565b949350505050565b60006040820190506118c56000830185611544565b6118d26020830184611786565b9392505050565b60006020820190506118ee600083018461156a565b92915050565b60006020820190506119096000830184611590565b92915050565b60006080820190506119246000830187611590565b61193160208301866117ac565b61193e6040830185611590565b61194b6060830184611590565b95945050505050565b6000602082019050818103600083015261196e81846115b6565b905092915050565b6000602082019050818103600083015261198f81611620565b9050919050565b600060208201905081810360008301526119af81611660565b9050919050565b600060208201905081810360008301526119cf816116e0565b9050919050565b600060208201905081810360008301526119ef81611746565b9050919050565b6000602082019050611a0b6000830184611786565b92915050565b6000604051905081810181811067ffffffffffffffff82111715611a3857611a37611d0c565b5b8060405250919050565b600067ffffffffffffffff821115611a5d57611a5c611d0c565b5b601f19601f8301169050602081019050919050565b600067ffffffffffffffff821115611a8d57611a8c611d0c565b5b601f19601f8301169050602081019050919050565b600081519050919050565b600082825260208201905092915050565b600081905092915050565b6000611ad482611b98565b9150611adf83611b98565b9250827fffffffffffffffffffffffffffffffffffffffffffffffffffffffffffffffff03821115611b1457611b13611c7f565b5b828201905092915050565b6000611b2a82611b98565b9150611b3583611b98565b925082611b4557611b44611cae565b5b828204905092915050565b6000611b5b82611b78565b9050919050565b60008115159050919050565b6000819050919050565b600073ffffffffffffffffffffffffffffffffffffffff82169050919050565b6000819050919050565b600060ff82169050919050565b82818337600083830152505050565b60005b83811015611bdc578082015181840152602081019050611bc1565b83811115611beb576000848401525b50505050565b60006002820490506001821680611c0957607f821691505b60208210811415611c1d57611c1c611cdd565b5b50919050565b6000611c2e82611c51565b9050919050565b6000611c4082611c6d565b9050919050565b6000819050919050565b6000611c5c82611d59565b9050919050565b6000819050919050565b6000611c7882611d4c565b9050919050565b7f4e487b7100000000000000000000000000000000000000000000000000000000600052601160045260246000fd5b7f4e487b7100000000000000000000000000000000000000000000000000000000600052601260045260246000fd5b7f4e487b7100000000000000000000000000000000000000000000000000000000600052602260045260246000fd5b7f4e487b7100000000000000000000000000000000000000000000000000000000600052604160045260246000fd5b6000601f19601f8301169050919050565b60008160f81b9050919050565b60008160601b9050919050565b611d6f81611b50565b8114611d7a57600080fd5b50565b611d8681611b62565b8114611d9157600080fd5b50565b611d9d81611b6e565b8114611da857600080fd5b50565b611db481611b98565b8114611dbf57600080fd5b5056fea26469706673582212201734b9904aefcbc6a0169a8c955e6531eb94663b6446c6b307b12d682e1146d064736f6c63430008000033",
  "linkReferences": {},
  "deployedLinkReferences": {}
}