{
  "_format": "hh-sol-artifact-1",
  "contractName": "Motion",
  "sourceName": "contracts/motion.sol",
  "abi": [
    {
      "anonymous": false,
      "inputs": [
        {
          "indexed": true,
          "internalType": "bytes32",
          "name": "key",
          "type": "bytes32"
        }
      ],
      "name": "MotionCreated",
      "type": "event"
    },
    {
      "inputs": [
        {
          "internalType": "bytes32",
          "name": "_key",
          "type": "bytes32"
        }
      ],
      "name": "countVote",
      "outputs": [],
      "stateMutability": "nonpayable",
      "type": "function"
    },
    {
      "inputs": [
        {
          "internalType": "string",
          "name": "_name",
          "type": "string"
        },
        {
          "internalType": "address",
          "name": "_tokenAddr",
          "type": "address"
        }
      ],
      "name": "createKey",
      "outputs": [
        {
          "internalType": "bytes32",
          "name": "",
          "type": "bytes32"
        }
      ],
      "stateMutability": "view",
      "type": "function"
    },
    {
      "inputs": [
        {
          "internalType": "bytes32",
          "name": "_key",
          "type": "bytes32"
        },
        {
          "internalType": "bool",
          "name": "_for",
          "type": "bool"
        },
        {
          "internalType": "uint256",
          "name": "_tokens",
          "type": "uint256"
        },
        {
          "internalType": "uint256",
          "name": "_nonce",
          "type": "uint256"
        }
      ],
      "name": "getEthSignedMsgHash",
      "outputs": [
        {
          "internalType": "bytes32",
          "name": "",
          "type": "bytes32"
        }
      ],
      "stateMutability": "pure",
      "type": "function"
    },
    {
      "inputs": [
        {
          "internalType": "bytes32",
          "name": "_key",
          "type": "bytes32"
        },
        {
          "internalType": "bool",
          "name": "_for",
          "type": "bool"
        },
        {
          "internalType": "uint256",
          "name": "_tokens",
          "type": "uint256"
        },
        {
          "internalType": "uint256",
          "name": "_nonce",
          "type": "uint256"
        }
      ],
      "name": "getMsgHash",
      "outputs": [
        {
          "internalType": "bytes32",
          "name": "",
          "type": "bytes32"
        }
      ],
      "stateMutability": "pure",
      "type": "function"
    },
    {
      "inputs": [
        {
          "internalType": "bytes32",
          "name": "_key",
          "type": "bytes32"
        }
      ],
      "name": "getName",
      "outputs": [
        {
          "internalType": "string",
          "name": "",
          "type": "string"
        }
      ],
      "stateMutability": "view",
      "type": "function"
    },
    {
      "inputs": [
        {
          "internalType": "bytes32",
          "name": "_key",
          "type": "bytes32"
        }
      ],
      "name": "getNays",
      "outputs": [
        {
          "internalType": "uint256",
          "name": "",
          "type": "uint256"
        }
      ],
      "stateMutability": "view",
      "type": "function"
    },
    {
      "inputs": [
        {
          "internalType": "bytes32",
          "name": "_key",
          "type": "bytes32"
        }
      ],
      "name": "getYays",
      "outputs": [
        {
          "internalType": "uint256",
          "name": "",
          "type": "uint256"
        }
      ],
      "stateMutability": "view",
      "type": "function"
    },
    {
      "inputs": [
        {
          "internalType": "bytes32",
          "name": "_key",
          "type": "bytes32"
        }
      ],
      "name": "isCompleted",
      "outputs": [
        {
          "internalType": "bool",
          "name": "",
          "type": "bool"
        }
      ],
      "stateMutability": "view",
      "type": "function"
    },
    {
      "inputs": [
        {
          "internalType": "bytes32",
          "name": "_key",
          "type": "bytes32"
        },
        {
          "internalType": "string",
          "name": "_name",
          "type": "string"
        },
        {
          "internalType": "address",
          "name": "_tokenAddr",
          "type": "address"
        }
      ],
      "name": "proposeMotion",
      "outputs": [],
      "stateMutability": "nonpayable",
      "type": "function"
    },
    {
      "inputs": [
        {
          "internalType": "bytes32",
          "name": "_key",
          "type": "bytes32"
        }
      ],
      "name": "returnTokens",
      "outputs": [],
      "stateMutability": "nonpayable",
      "type": "function"
    },
    {
      "inputs": [
        {
          "internalType": "bytes32",
          "name": "_key",
          "type": "bytes32"
        },
        {
          "internalType": "bool",
          "name": "_for",
          "type": "bool"
        },
        {
          "internalType": "uint256",
          "name": "_tokens",
          "type": "uint256"
        },
        {
          "internalType": "uint256",
          "name": "_nonce",
          "type": "uint256"
        },
        {
          "internalType": "bytes",
          "name": "signature",
          "type": "bytes"
        }
      ],
      "name": "vote",
      "outputs": [],
      "stateMutability": "nonpayable",
      "type": "function"
    }
  ],
  "bytecode": "0x608060405234801561001057600080fd5b50611d0d806100206000396000f3fe608060405234801561001057600080fd5b50600436106100a95760003560e01c806354b8d5e31161007157806354b8d5e3146101765780636b844f2c146101a657806382645670146101d6578063d073a8fa14610206578063eea2007614610222578063f6f7409914610252576100a9565b80630e520497146100ae57806312cab545146100ca57806323ce63fc146100fa5780633dfcd1491461012a5780634a8e0f2814610146575b600080fd5b6100c860048036038101906100c39190611375565b61026e565b005b6100e460048036038101906100df919061125a565b6103fb565b6040516100f191906117ee565b60405180910390f35b610114600480360381019061010f9190611283565b61049a565b6040516101219190611809565b60405180910390f35b610144600480360381019061013f919061125a565b6104d3565b005b610160600480360381019061015b91906113dc565b61086b565b60405161016d9190611809565b60405180910390f35b610190600480360381019061018b919061125a565b6108a2565b60405161019d9190611869565b60405180910390f35b6101c060048036038101906101bb919061125a565b610949565b6040516101cd919061190b565b60405180910390f35b6101f060048036038101906101eb919061125a565b610968565b6040516101fd919061190b565b60405180910390f35b610220600480360381019061021b919061125a565b610987565b005b61023c60048036038101906102379190611283565b610bdb565b6040516102499190611809565b60405180910390f35b61026c600480360381019061026791906112e6565b610c19565b005b6040518060a001604052808381526020018273ffffffffffffffffffffffffffffffffffffffff1681526020016000815260200160008152602001600060028111156102e3577f4e487b7100000000000000000000000000000000000000000000000000000000600052602160045260246000fd5b8152506000808581526020019081526020016000206000820151816000019080519060200190610314929190611040565b5060208201518160010160006101000a81548173ffffffffffffffffffffffffffffffffffffffff021916908373ffffffffffffffffffffffffffffffffffffffff160217905550604082015181600201556060820151816003015560808201518160040160006101000a81548160ff021916908360028111156103c1577f4e487b7100000000000000000000000000000000000000000000000000000000600052602160045260246000fd5b0217905550905050827fdc396f10375221dd1a9c697ed5e2a7864ef1eb3dc140071da067f4b2d74d001960405160405180910390a2505050565b6000806002811115610436577f4e487b7100000000000000000000000000000000000000000000000000000000600052602160045260246000fd5b60008084815260200190815260200160002060040160009054906101000a900460ff166002811115610491577f4e487b7100000000000000000000000000000000000000000000000000000000600052602160045260246000fd5b14159050919050565b6000848484846040516020016104b394939291906116d0565b604051602081830303815290604052805190602001209050949350505050565b60008060008381526020019081526020016000206040518060a001604052908160008201805461050290611b06565b80601f016020809104026020016040519081016040528092919081815260200182805461052e90611b06565b801561057b5780601f106105505761010080835404028352916020019161057b565b820191906000526020600020905b81548152906001019060200180831161055e57829003601f168201915b505050505081526020016001820160009054906101000a900473ffffffffffffffffffffffffffffffffffffffff1673ffffffffffffffffffffffffffffffffffffffff1673ffffffffffffffffffffffffffffffffffffffff16815260200160028201548152602001600382015481526020016004820160009054906101000a900460ff166002811115610639577f4e487b7100000000000000000000000000000000000000000000000000000000600052602160045260246000fd5b6002811115610671577f4e487b7100000000000000000000000000000000000000000000000000000000600052602160045260246000fd5b815250509050600060028111156106b1577f4e487b7100000000000000000000000000000000000000000000000000000000600052602160045260246000fd5b816080015160028111156106ee577f4e487b7100000000000000000000000000000000000000000000000000000000600052602160045260246000fd5b141561072f576040517f08c379a00000000000000000000000000000000000000000000000000000000081526004016107269061188b565b60405180910390fd5b806020015173ffffffffffffffffffffffffffffffffffffffff1663a9059cbb336001600086815260200190815260200160002060003373ffffffffffffffffffffffffffffffffffffffff1673ffffffffffffffffffffffffffffffffffffffff168152602001908152602001600020546040518363ffffffff1660e01b81526004016107be9291906117c5565b602060405180830381600087803b1580156107d857600080fd5b505af11580156107ec573d6000803e3d6000fd5b505050506040513d601f19601f820116820180604052508101906108109190611231565b5060006001600084815260200190815260200160002060003373ffffffffffffffffffffffffffffffffffffffff1673ffffffffffffffffffffffffffffffffffffffff168152602001908152602001600020819055505050565b6000428383336040516020016108849493929190611744565b60405160208183030381529060405280519060200120905092915050565b606060008083815260200190815260200160002060000180546108c490611b06565b80601f01602080910402602001604051908101604052809291908181526020018280546108f090611b06565b801561093d5780601f106109125761010080835404028352916020019161093d565b820191906000526020600020905b81548152906001019060200180831161092057829003601f168201915b50505050509050919050565b6000806000838152602001908152602001600020600201549050919050565b6000806000838152602001908152602001600020600301549050919050565b60008060008381526020019081526020016000209050600060028111156109d7577f4e487b7100000000000000000000000000000000000000000000000000000000600052602160045260246000fd5b8160040160009054906101000a900460ff166002811115610a21577f4e487b7100000000000000000000000000000000000000000000000000000000600052602160045260246000fd5b14610a61576040517f08c379a0000000000000000000000000000000000000000000000000000000008152600401610a58906118cb565b60405180910390fd5b600060028260010160009054906101000a900473ffffffffffffffffffffffffffffffffffffffff1673ffffffffffffffffffffffffffffffffffffffff166318160ddd6040518163ffffffff1660e01b815260040160206040518083038186803b158015610acf57600080fd5b505afa158015610ae3573d6000803e3d6000fd5b505050506040513d601f19601f82011682018060405250810190610b079190611430565b610b119190611a34565b905080826002015410610b765760018260040160006101000a81548160ff02191690836002811115610b6c577f4e487b7100000000000000000000000000000000000000000000000000000000600052602160045260246000fd5b0217905550610bd6565b80826003015410610bd55760028260040160006101000a81548160ff02191690836002811115610bcf577f4e487b7100000000000000000000000000000000000000000000000000000000600052602160045260246000fd5b02179055505b5b505050565b6000610be98585858561049a565b604051602001610bf9919061171e565b604051602081830303815290604052805190602001209050949350505050565b6000806000878152602001908152602001600020905060006002811115610c69577f4e487b7100000000000000000000000000000000000000000000000000000000600052602160045260246000fd5b8160040160009054906101000a900460ff166002811115610cb3577f4e487b7100000000000000000000000000000000000000000000000000000000600052602160045260246000fd5b14610cf3576040517f08c379a0000000000000000000000000000000000000000000000000000000008152600401610cea906118cb565b60405180910390fd5b610d01338787878787610efd565b610d40576040517f08c379a0000000000000000000000000000000000000000000000000000000008152600401610d37906118ab565b60405180910390fd5b8060010160009054906101000a900473ffffffffffffffffffffffffffffffffffffffff1673ffffffffffffffffffffffffffffffffffffffff166323b872dd3330876040518463ffffffff1660e01b8152600401610da19392919061178e565b602060405180830381600087803b158015610dbb57600080fd5b505af1158015610dcf573d6000803e3d6000fd5b505050506040513d601f19601f82011682018060405250810190610df39190611231565b50610e57846001600089815260200190815260200160002060003373ffffffffffffffffffffffffffffffffffffffff1673ffffffffffffffffffffffffffffffffffffffff16815260200190815260200160002054610f5390919063ffffffff16565b6001600088815260200190815260200160002060003373ffffffffffffffffffffffffffffffffffffffff1673ffffffffffffffffffffffffffffffffffffffff168152602001908152602001600020819055508415610ed557610ec8848260020154610f5390919063ffffffff16565b8160020181905550610ef5565b610eec848260030154610f5390919063ffffffff16565b81600301819055505b505050505050565b600080610f0c87878787610bdb565b90508773ffffffffffffffffffffffffffffffffffffffff16610f2f8285610f69565b73ffffffffffffffffffffffffffffffffffffffff16149150509695505050505050565b60008183610f6191906119de565b905092915050565b600080600080610f7885610fd8565b92509250925060018682858560405160008152602001604052604051610fa19493929190611824565b6020604051602081039080840390855afa158015610fc3573d6000803e3d6000fd5b50505060206040510351935050505092915050565b60008060006041845114611021576040517f08c379a0000000000000000000000000000000000000000000000000000000008152600401611018906118eb565b60405180910390fd5b6020840151925060408401519150606084015160001a90509193909250565b82805461104c90611b06565b90600052602060002090601f01602090048101928261106e57600085556110b5565b82601f1061108757805160ff19168380011785556110b5565b828001600101855582156110b5579182015b828111156110b4578251825591602001919060010190611099565b5b5090506110c291906110c6565b5090565b5b808211156110df5760008160009055506001016110c7565b5090565b60006110f66110f184611957565b611926565b90508281526020810184848401111561110e57600080fd5b611119848285611ac4565b509392505050565b600061113461112f84611987565b611926565b90508281526020810184848401111561114c57600080fd5b611157848285611ac4565b509392505050565b60008135905061116e81611c7b565b92915050565b60008135905061118381611c92565b92915050565b60008151905061119881611c92565b92915050565b6000813590506111ad81611ca9565b92915050565b600082601f8301126111c457600080fd5b81356111d48482602086016110e3565b91505092915050565b600082601f8301126111ee57600080fd5b81356111fe848260208601611121565b91505092915050565b60008135905061121681611cc0565b92915050565b60008151905061122b81611cc0565b92915050565b60006020828403121561124357600080fd5b600061125184828501611189565b91505092915050565b60006020828403121561126c57600080fd5b600061127a8482850161119e565b91505092915050565b6000806000806080858703121561129957600080fd5b60006112a78782880161119e565b94505060206112b887828801611174565b93505060406112c987828801611207565b92505060606112da87828801611207565b91505092959194509250565b600080600080600060a086880312156112fe57600080fd5b600061130c8882890161119e565b955050602061131d88828901611174565b945050604061132e88828901611207565b935050606061133f88828901611207565b925050608086013567ffffffffffffffff81111561135c57600080fd5b611368888289016111b3565b9150509295509295909350565b60008060006060848603121561138a57600080fd5b60006113988682870161119e565b935050602084013567ffffffffffffffff8111156113b557600080fd5b6113c1868287016111dd565b92505060406113d28682870161115f565b9150509250925092565b600080604083850312156113ef57600080fd5b600083013567ffffffffffffffff81111561140957600080fd5b611415858286016111dd565b92505060206114268582860161115f565b9150509250929050565b60006020828403121561144257600080fd5b60006114508482850161121c565b91505092915050565b61146281611a65565b82525050565b61147961147482611a65565b611b38565b82525050565b61148881611a77565b82525050565b61149f61149a82611a77565b611b4a565b82525050565b6114ae81611a83565b82525050565b6114c56114c082611a83565b611b5c565b82525050565b60006114d6826119b7565b6114e081856119c2565b93506114f0818560208601611ad3565b6114f981611c50565b840191505092915050565b600061150f826119b7565b61151981856119d3565b9350611529818560208601611ad3565b80840191505092915050565b6000611542601f836119c2565b91507f4d6f74696f6e3a204d6f74696f6e207374696c6c20696e2070726f63657373006000830152602082019050919050565b60006115826019836119c2565b91507f4d6f74696f6e3a20496e76616c6964207369676e6174757265000000000000006000830152602082019050919050565b60006115c2601c836119d3565b91507f19457468657265756d205369676e6564204d6573736167653a0a3332000000006000830152601c82019050919050565b60006116026029836119c2565b91507f4d6f74696f6e3a204d6f74696f6e2068617320616c7265616479206265656e2060008301527f636f6d706c6574656400000000000000000000000000000000000000000000006020830152604082019050919050565b60006116686018836119c2565b91507f696e76616c6964207369676e6174757265206c656e67746800000000000000006000830152602082019050919050565b6116a481611aad565b82525050565b6116bb6116b682611aad565b611b78565b82525050565b6116ca81611ab7565b82525050565b60006116dc82876114b4565b6020820191506116ec828661148e565b6001820191506116fc82856116aa565b60208201915061170c82846116aa565b60208201915081905095945050505050565b6000611729826115b5565b915061173582846114b4565b60208201915081905092915050565b600061175082876116aa565b6020820191506117608286611504565b915061176c8285611468565b60148201915061177c8284611468565b60148201915081905095945050505050565b60006060820190506117a36000830186611459565b6117b06020830185611459565b6117bd604083018461169b565b949350505050565b60006040820190506117da6000830185611459565b6117e7602083018461169b565b9392505050565b6000602082019050611803600083018461147f565b92915050565b600060208201905061181e60008301846114a5565b92915050565b600060808201905061183960008301876114a5565b61184660208301866116c1565b61185360408301856114a5565b61186060608301846114a5565b95945050505050565b6000602082019050818103600083015261188381846114cb565b905092915050565b600060208201905081810360008301526118a481611535565b9050919050565b600060208201905081810360008301526118c481611575565b9050919050565b600060208201905081810360008301526118e4816115f5565b9050919050565b600060208201905081810360008301526119048161165b565b9050919050565b6000602082019050611920600083018461169b565b92915050565b6000604051905081810181811067ffffffffffffffff8211171561194d5761194c611c21565b5b8060405250919050565b600067ffffffffffffffff82111561197257611971611c21565b5b601f19601f8301169050602081019050919050565b600067ffffffffffffffff8211156119a2576119a1611c21565b5b601f19601f8301169050602081019050919050565b600081519050919050565b600082825260208201905092915050565b600081905092915050565b60006119e982611aad565b91506119f483611aad565b9250827fffffffffffffffffffffffffffffffffffffffffffffffffffffffffffffffff03821115611a2957611a28611b94565b5b828201905092915050565b6000611a3f82611aad565b9150611a4a83611aad565b925082611a5a57611a59611bc3565b5b828204905092915050565b6000611a7082611a8d565b9050919050565b60008115159050919050565b6000819050919050565b600073ffffffffffffffffffffffffffffffffffffffff82169050919050565b6000819050919050565b600060ff82169050919050565b82818337600083830152505050565b60005b83811015611af1578082015181840152602081019050611ad6565b83811115611b00576000848401525b50505050565b60006002820490506001821680611b1e57607f821691505b60208210811415611b3257611b31611bf2565b5b50919050565b6000611b4382611b66565b9050919050565b6000611b5582611b82565b9050919050565b6000819050919050565b6000611b7182611c6e565b9050919050565b6000819050919050565b6000611b8d82611c61565b9050919050565b7f4e487b7100000000000000000000000000000000000000000000000000000000600052601160045260246000fd5b7f4e487b7100000000000000000000000000000000000000000000000000000000600052601260045260246000fd5b7f4e487b7100000000000000000000000000000000000000000000000000000000600052602260045260246000fd5b7f4e487b7100000000000000000000000000000000000000000000000000000000600052604160045260246000fd5b6000601f19601f8301169050919050565b60008160f81b9050919050565b60008160601b9050919050565b611c8481611a65565b8114611c8f57600080fd5b50565b611c9b81611a77565b8114611ca657600080fd5b50565b611cb281611a83565b8114611cbd57600080fd5b50565b611cc981611aad565b8114611cd457600080fd5b5056fea2646970667358221220beaeaa8df26ea80f128f415b438f4f57bad5cdd3de8c5238d58b30fc2eacae4864736f6c63430008000033",
  "linkReferences": {},
  "deployedLinkReferences": {}
}