{
  "_format": "hh-sol-artifact-1",
  "contractName": "Motion",
  "sourceName": "contracts/motion.sol",
  "abi": [
    {
      "anonymous": false,
      "inputs": [
        {
          "indexed": true,
          "internalType": "string",
          "name": "_name",
          "type": "string"
        },
        {
          "indexed": true,
          "internalType": "bytes32",
          "name": "key",
          "type": "bytes32"
        }
      ],
      "name": "MotionProposed",
      "type": "event"
    },
    {
      "inputs": [
        {
          "internalType": "bytes32",
          "name": "_key",
          "type": "bytes32"
        }
      ],
      "name": "getYays",
      "outputs": [
        {
          "internalType": "uint256",
          "name": "",
          "type": "uint256"
        }
      ],
      "stateMutability": "view",
      "type": "function"
    },
    {
      "inputs": [
        {
          "internalType": "string",
          "name": "_name",
          "type": "string"
        },
        {
          "internalType": "address",
          "name": "_token",
          "type": "address"
        }
      ],
      "name": "proposeMotion",
      "outputs": [
        {
          "internalType": "bytes32",
          "name": "",
          "type": "bytes32"
        }
      ],
      "stateMutability": "nonpayable",
      "type": "function"
    }
  ],
  "bytecode": "0x608060405234801561001057600080fd5b50610775806100206000396000f3fe608060405234801561001057600080fd5b50600436106100365760003560e01c80635d9767c81461003b5780636b844f2c1461006b575b600080fd5b610055600480360381019061005091906103f0565b61009b565b6040516100629190610511565b60405180910390f35b610085600480360381019061008091906103c7565b610273565b604051610092919061052c565b60405180910390f35b6000804284336040516020016100b3939291906104d8565b6040516020818303038152906040528051906020012090506040518060a001604052808581526020018473ffffffffffffffffffffffffffffffffffffffff168152602001600081526020016000815260200160006002811115610140577f4e487b7100000000000000000000000000000000000000000000000000000000600052602160045260246000fd5b8152506000808381526020019081526020016000206000820151816000019080519060200190610171929190610292565b5060208201518160010160006101000a81548173ffffffffffffffffffffffffffffffffffffffff021916908373ffffffffffffffffffffffffffffffffffffffff160217905550604082015181600201556060820151816003015560808201518160040160006101000a81548160ff0219169083600281111561021e577f4e487b7100000000000000000000000000000000000000000000000000000000600052602160045260246000fd5b0217905550905050808460405161023591906104c1565b60405180910390207fa855548ff7670ce55fa385973857cbe3be0c47b4570ff6c74838978b0f6c84a860405160405180910390a38091505092915050565b6000806000838152602001908152602001600020600201549050919050565b82805461029e90610646565b90600052602060002090601f0160209004810192826102c05760008555610307565b82601f106102d957805160ff1916838001178555610307565b82800160010185558215610307579182015b828111156103065782518255916020019190600101906102eb565b5b5090506103149190610318565b5090565b5b80821115610331576000816000905550600101610319565b5090565b600061034861034384610578565b610547565b90508281526020810184848401111561036057600080fd5b61036b848285610604565b509392505050565b60008135905061038281610711565b92915050565b60008135905061039781610728565b92915050565b600082601f8301126103ae57600080fd5b81356103be848260208601610335565b91505092915050565b6000602082840312156103d957600080fd5b60006103e784828501610388565b91505092915050565b6000806040838503121561040357600080fd5b600083013567ffffffffffffffff81111561041d57600080fd5b6104298582860161039d565b925050602061043a85828601610373565b9150509250929050565b610455610450826105be565b610678565b82525050565b610464816105d0565b82525050565b6000610475826105a8565b61047f81856105b3565b935061048f818560208601610613565b80840191505092915050565b6104a4816105fa565b82525050565b6104bb6104b6826105fa565b61069c565b82525050565b60006104cd828461046a565b915081905092915050565b60006104e482866104aa565b6020820191506104f4828561046a565b91506105008284610444565b601482019150819050949350505050565b6000602082019050610526600083018461045b565b92915050565b6000602082019050610541600083018461049b565b92915050565b6000604051905081810181811067ffffffffffffffff8211171561056e5761056d6106d5565b5b8060405250919050565b600067ffffffffffffffff821115610593576105926106d5565b5b601f19601f8301169050602081019050919050565b600081519050919050565b600081905092915050565b60006105c9826105da565b9050919050565b6000819050919050565b600073ffffffffffffffffffffffffffffffffffffffff82169050919050565b6000819050919050565b82818337600083830152505050565b60005b83811015610631578082015181840152602081019050610616565b83811115610640576000848401525b50505050565b6000600282049050600182168061065e57607f821691505b60208210811415610672576106716106a6565b5b50919050565b60006106838261068a565b9050919050565b600061069582610704565b9050919050565b6000819050919050565b7f4e487b7100000000000000000000000000000000000000000000000000000000600052602260045260246000fd5b7f4e487b7100000000000000000000000000000000000000000000000000000000600052604160045260246000fd5b60008160601b9050919050565b61071a816105be565b811461072557600080fd5b50565b610731816105d0565b811461073c57600080fd5b5056fea2646970667358221220d6e87c7f728fbb1275354537535a57def1a465011a2c21fc00383077eb93547b64736f6c63430008000033",
  "linkReferences": {},
  "deployedLinkReferences": {}
}