{
  "_format": "hh-sol-artifact-1",
  "contractName": "BlockBiz",
  "sourceName": "contracts/BlockBiz.sol",
  "abi": [
    {
      "inputs": [
        {
          "internalType": "string",
          "name": "_companyName",
          "type": "string"
        },
        {
          "internalType": "uint256",
          "name": "_initShares",
          "type": "uint256"
        }
      ],
      "stateMutability": "nonpayable",
      "type": "constructor"
    },
    {
      "anonymous": false,
      "inputs": [
        {
          "indexed": false,
          "internalType": "string",
          "name": "",
          "type": "string"
        },
        {
          "indexed": false,
          "internalType": "uint256",
          "name": "",
          "type": "uint256"
        }
      ],
      "name": "NewBlockBizCreated",
      "type": "event"
    },
    {
      "inputs": [],
      "name": "getBalance",
      "outputs": [
        {
          "internalType": "uint256",
          "name": "",
          "type": "uint256"
        }
      ],
      "stateMutability": "view",
      "type": "function"
    },
    {
      "inputs": [
        {
          "internalType": "address",
          "name": "_shareholder",
          "type": "address"
        }
      ],
      "name": "getSharesHeldBy",
      "outputs": [
        {
          "internalType": "uint256",
          "name": "",
          "type": "uint256"
        }
      ],
      "stateMutability": "view",
      "type": "function"
    }
  ],
  "bytecode": "0x608060405234801561001057600080fd5b50604051610605380380610605833981810160405281019061003291906101ed565b81600090805190602001906100489291906100cd565b5080600160003373ffffffffffffffffffffffffffffffffffffffff1673ffffffffffffffffffffffffffffffffffffffff168152602001908152602001600020819055507fc04c886fe101bfaf4838ad132520680ac48d0476d6beb5dbdf5f0667a0d977b882826040516100be929190610289565b60405180910390a1505061042b565b8280546100d990610373565b90600052602060002090601f0160209004810192826100fb5760008555610142565b82601f1061011457805160ff1916838001178555610142565b82800160010185558215610142579182015b82811115610141578251825591602001919060010190610126565b5b50905061014f9190610153565b5090565b5b8082111561016c576000816000905550600101610154565b5090565b600061018361017e846102ea565b6102b9565b90508281526020810184848401111561019b57600080fd5b6101a6848285610340565b509392505050565b600082601f8301126101bf57600080fd5b81516101cf848260208601610170565b91505092915050565b6000815190506101e781610414565b92915050565b6000806040838503121561020057600080fd5b600083015167ffffffffffffffff81111561021a57600080fd5b610226858286016101ae565b9250506020610237858286016101d8565b9150509250929050565b600061024c8261031a565b6102568185610325565b9350610266818560208601610340565b61026f81610403565b840191505092915050565b61028381610336565b82525050565b600060408201905081810360008301526102a38185610241565b90506102b2602083018461027a565b9392505050565b6000604051905081810181811067ffffffffffffffff821117156102e0576102df6103d4565b5b8060405250919050565b600067ffffffffffffffff821115610305576103046103d4565b5b601f19601f8301169050602081019050919050565b600081519050919050565b600082825260208201905092915050565b6000819050919050565b60005b8381101561035e578082015181840152602081019050610343565b8381111561036d576000848401525b50505050565b6000600282049050600182168061038b57607f821691505b6020821081141561039f5761039e6103a5565b5b50919050565b7f4e487b7100000000000000000000000000000000000000000000000000000000600052602260045260246000fd5b7f4e487b7100000000000000000000000000000000000000000000000000000000600052604160045260246000fd5b6000601f19601f8301169050919050565b61041d81610336565b811461042857600080fd5b50565b6101cb8061043a6000396000f3fe608060405234801561001057600080fd5b50600436106100365760003560e01c806312065fe01461003b578063477a226314610059575b600080fd5b610043610089565b6040516100509190610127565b60405180910390f35b610073600480360381019061006e91906100ef565b610091565b6040516100809190610127565b60405180910390f35b600047905090565b6000600160008373ffffffffffffffffffffffffffffffffffffffff1673ffffffffffffffffffffffffffffffffffffffff168152602001908152602001600020549050919050565b6000813590506100e98161017e565b92915050565b60006020828403121561010157600080fd5b600061010f848285016100da565b91505092915050565b61012181610174565b82525050565b600060208201905061013c6000830184610118565b92915050565b600061014d82610154565b9050919050565b600073ffffffffffffffffffffffffffffffffffffffff82169050919050565b6000819050919050565b61018781610142565b811461019257600080fd5b5056fea26469706673582212209b0a0a4aafb754e4b6ce993a5dcd26e110b39dcde8affa1b73da48272bb4921764736f6c63430008000033",
  "linkReferences": {},
  "deployedLinkReferences": {}
}