{
  "_format": "hh-sol-artifact-1",
  "contractName": "BlockBiz",
  "sourceName": "contracts/BlockBiz.sol",
  "abi": [
    {
      "inputs": [
        {
          "internalType": "string",
          "name": "_companyName",
          "type": "string"
        },
        {
          "internalType": "uint256",
          "name": "_initShares",
          "type": "uint256"
        }
      ],
      "stateMutability": "payable",
      "type": "constructor"
    },
    {
      "inputs": [],
      "name": "companyName",
      "outputs": [
        {
          "internalType": "string",
          "name": "",
          "type": "string"
        }
      ],
      "stateMutability": "view",
      "type": "function"
    },
    {
      "inputs": [],
      "name": "getBalance",
      "outputs": [
        {
          "internalType": "uint256",
          "name": "",
          "type": "uint256"
        }
      ],
      "stateMutability": "view",
      "type": "function"
    }
  ],
  "bytecode": "0x60806040526040516103b43803806103b48339818101604052604081101561002657600080fd5b810190808051604051939291908464010000000082111561004657600080fd5b8382019150602082018581111561005c57600080fd5b825186600182028301116401000000008211171561007957600080fd5b8083526020830192505050908051906020019080838360005b838110156100ad578082015181840152602081019050610092565b50505050905090810190601f1680156100da5780820380516001836020036101000a031916815260200191505b50604052602001805190602001909291905050508160009080519060200190610104929190610150565b5080600160003373ffffffffffffffffffffffffffffffffffffffff1673ffffffffffffffffffffffffffffffffffffffff1681526020019081526020016000208190555050506101ed565b828054600181600116156101000203166002900490600052602060002090601f016020900481019282601f1061019157805160ff19168380011785556101bf565b828001600101855582156101bf579182015b828111156101be5782518255916020019190600101906101a3565b5b5090506101cc91906101d0565b5090565b5b808211156101e95760008160009055506001016101d1565b5090565b6101b8806101fc6000396000f3fe608060405234801561001057600080fd5b50600436106100365760003560e01c806312065fe01461003b578063f5ec2eed14610059575b600080fd5b6100436100dc565b6040518082815260200191505060405180910390f35b6100616100e4565b6040518080602001828103825283818151815260200191508051906020019080838360005b838110156100a1578082015181840152602081019050610086565b50505050905090810190601f1680156100ce5780820380516001836020036101000a031916815260200191505b509250505060405180910390f35b600047905090565b60008054600181600116156101000203166002900480601f01602080910402602001604051908101604052809291908181526020018280546001816001161561010002031660029004801561017a5780601f1061014f5761010080835404028352916020019161017a565b820191906000526020600020905b81548152906001019060200180831161015d57829003601f168201915b50505050508156fea2646970667358221220cabb25451a8b3f79cd880853c798960305d2383c551746ecb46655733acbd54e64736f6c63430007030033",
  "linkReferences": {},
  "deployedLinkReferences": {}
}