{
  "_format": "hh-sol-artifact-1",
  "contractName": "BlockBiz",
  "sourceName": "contracts/BlockBiz.sol",
  "abi": [
    {
      "inputs": [
        {
          "internalType": "string",
          "name": "_companyName",
          "type": "string"
        },
        {
          "internalType": "uint256",
          "name": "_initShares",
          "type": "uint256"
        }
      ],
      "stateMutability": "nonpayable",
      "type": "constructor"
    },
    {
      "anonymous": false,
      "inputs": [
        {
          "indexed": false,
          "internalType": "string",
          "name": "",
          "type": "string"
        },
        {
          "indexed": false,
          "internalType": "uint256",
          "name": "",
          "type": "uint256"
        }
      ],
      "name": "NewBlockBizCreated",
      "type": "event"
    },
    {
      "inputs": [
        {
          "internalType": "address",
          "name": "_shareholder",
          "type": "address"
        }
      ],
      "name": "balanceOf",
      "outputs": [
        {
          "internalType": "uint256",
          "name": "",
          "type": "uint256"
        }
      ],
      "stateMutability": "view",
      "type": "function"
    },
    {
      "inputs": [],
      "name": "getBalance",
      "outputs": [
        {
          "internalType": "uint256",
          "name": "",
          "type": "uint256"
        }
      ],
      "stateMutability": "view",
      "type": "function"
    },
    {
      "inputs": [],
      "name": "totalSupply",
      "outputs": [
        {
          "internalType": "uint256",
          "name": "",
          "type": "uint256"
        }
      ],
      "stateMutability": "view",
      "type": "function"
    },
    {
      "inputs": [
        {
          "internalType": "address",
          "name": "_recipient",
          "type": "address"
        },
        {
          "internalType": "uint256",
          "name": "_shares",
          "type": "uint256"
        }
      ],
      "name": "transfer",
      "outputs": [
        {
          "internalType": "bool",
          "name": "",
          "type": "bool"
        }
      ],
      "stateMutability": "nonpayable",
      "type": "function"
    }
  ],
  "bytecode": "0x60806040523480156200001157600080fd5b506040516200091f3803806200091f833981810160405281019062000037919062000219565b81600090805190602001906200004f929190620000e0565b5080600181905550600154600260003373ffffffffffffffffffffffffffffffffffffffff1673ffffffffffffffffffffffffffffffffffffffff168152602001908152602001600020819055507fc04c886fe101bfaf4838ad132520680ac48d0476d6beb5dbdf5f0667a0d977b88282604051620000d0929190620002c5565b60405180910390a150506200047b565b828054620000ee90620003bc565b90600052602060002090601f0160209004810192826200011257600085556200015e565b82601f106200012d57805160ff19168380011785556200015e565b828001600101855582156200015e579182015b828111156200015d57825182559160200191906001019062000140565b5b5090506200016d919062000171565b5090565b5b808211156200018c57600081600090555060010162000172565b5090565b6000620001a7620001a1846200032d565b620002f9565b905082815260208101848484011115620001c057600080fd5b620001cd84828562000386565b509392505050565b600082601f830112620001e757600080fd5b8151620001f984826020860162000190565b91505092915050565b600081519050620002138162000461565b92915050565b600080604083850312156200022d57600080fd5b600083015167ffffffffffffffff8111156200024857600080fd5b6200025685828601620001d5565b9250506020620002698582860162000202565b9150509250929050565b6000620002808262000360565b6200028c81856200036b565b93506200029e81856020860162000386565b620002a98162000450565b840191505092915050565b620002bf816200037c565b82525050565b60006040820190508181036000830152620002e1818562000273565b9050620002f26020830184620002b4565b9392505050565b6000604051905081810181811067ffffffffffffffff8211171562000323576200032262000421565b5b8060405250919050565b600067ffffffffffffffff8211156200034b576200034a62000421565b5b601f19601f8301169050602081019050919050565b600081519050919050565b600082825260208201905092915050565b6000819050919050565b60005b83811015620003a657808201518184015260208101905062000389565b83811115620003b6576000848401525b50505050565b60006002820490506001821680620003d557607f821691505b60208210811415620003ec57620003eb620003f2565b5b50919050565b7f4e487b7100000000000000000000000000000000000000000000000000000000600052602260045260246000fd5b7f4e487b7100000000000000000000000000000000000000000000000000000000600052604160045260246000fd5b6000601f19601f8301169050919050565b6200046c816200037c565b81146200047857600080fd5b50565b610494806200048b6000396000f3fe608060405234801561001057600080fd5b506004361061004c5760003560e01c806312065fe01461005157806318160ddd1461006f57806370a082311461008d578063a9059cbb146100bd575b600080fd5b6100596100ed565b6040516100669190610314565b60405180910390f35b6100776100f5565b6040516100849190610314565b60405180910390f35b6100a760048036038101906100a29190610276565b6100ff565b6040516100b49190610314565b60405180910390f35b6100d760048036038101906100d2919061029f565b610148565b6040516100e491906102f9565b60405180910390f35b600047905090565b6000600154905090565b6000600260008373ffffffffffffffffffffffffffffffffffffffff1673ffffffffffffffffffffffffffffffffffffffff168152602001908152602001600020549050919050565b600081600260003373ffffffffffffffffffffffffffffffffffffffff1673ffffffffffffffffffffffffffffffffffffffff16815260200190815260200160002054101561019657600080fd5b81600260003373ffffffffffffffffffffffffffffffffffffffff1673ffffffffffffffffffffffffffffffffffffffff16815260200190815260200160002060008282546101e59190610385565b9250508190555081600260008573ffffffffffffffffffffffffffffffffffffffff1673ffffffffffffffffffffffffffffffffffffffff168152602001908152602001600020600082825461023b919061032f565b925050819055506001905092915050565b60008135905061025b81610430565b92915050565b60008135905061027081610447565b92915050565b60006020828403121561028857600080fd5b60006102968482850161024c565b91505092915050565b600080604083850312156102b257600080fd5b60006102c08582860161024c565b92505060206102d185828601610261565b9150509250929050565b6102e4816103cb565b82525050565b6102f3816103f7565b82525050565b600060208201905061030e60008301846102db565b92915050565b600060208201905061032960008301846102ea565b92915050565b600061033a826103f7565b9150610345836103f7565b9250827fffffffffffffffffffffffffffffffffffffffffffffffffffffffffffffffff0382111561037a57610379610401565b5b828201905092915050565b6000610390826103f7565b915061039b836103f7565b9250828210156103ae576103ad610401565b5b828203905092915050565b60006103c4826103d7565b9050919050565b60008115159050919050565b600073ffffffffffffffffffffffffffffffffffffffff82169050919050565b6000819050919050565b7f4e487b7100000000000000000000000000000000000000000000000000000000600052601160045260246000fd5b610439816103b9565b811461044457600080fd5b50565b610450816103f7565b811461045b57600080fd5b5056fea2646970667358221220cc2291f5999c95a0b035091911c01cb1dbd1ce7047e3f6e7594052df554869c264736f6c63430008000033",
  "linkReferences": {},
  "deployedLinkReferences": {}
}