{
  "_format": "hh-sol-artifact-1",
  "contractName": "BlockBiz",
  "sourceName": "contracts/BlockBiz.sol",
  "abi": [
    {
      "inputs": [
        {
          "internalType": "string",
          "name": "_companyName",
          "type": "string"
        },
        {
          "internalType": "uint256",
          "name": "_initShares",
          "type": "uint256"
        }
      ],
      "stateMutability": "payable",
      "type": "constructor"
    },
    {
      "inputs": [],
      "name": "companyName",
      "outputs": [
        {
          "internalType": "string",
          "name": "",
          "type": "string"
        }
      ],
      "stateMutability": "view",
      "type": "function"
    },
    {
      "inputs": [],
      "name": "getBalance",
      "outputs": [
        {
          "internalType": "uint256",
          "name": "",
          "type": "uint256"
        }
      ],
      "stateMutability": "view",
      "type": "function"
    },
    {
      "inputs": [
        {
          "internalType": "address",
          "name": "_shareholder",
          "type": "address"
        }
      ],
      "name": "getSharesHeldBy",
      "outputs": [
        {
          "internalType": "uint256",
          "name": "",
          "type": "uint256"
        }
      ],
      "stateMutability": "view",
      "type": "function"
    }
  ],
  "bytecode": "0x60806040526040516104603803806104608339818101604052604081101561002657600080fd5b810190808051604051939291908464010000000082111561004657600080fd5b8382019150602082018581111561005c57600080fd5b825186600182028301116401000000008211171561007957600080fd5b8083526020830192505050908051906020019080838360005b838110156100ad578082015181840152602081019050610092565b50505050905090810190601f1680156100da5780820380516001836020036101000a031916815260200191505b50604052602001805190602001909291905050508160009080519060200190610104929190610150565b5080600160003373ffffffffffffffffffffffffffffffffffffffff1673ffffffffffffffffffffffffffffffffffffffff1681526020019081526020016000208190555050506101ed565b828054600181600116156101000203166002900490600052602060002090601f016020900481019282601f1061019157805160ff19168380011785556101bf565b828001600101855582156101bf579182015b828111156101be5782518255916020019190600101906101a3565b5b5090506101cc91906101d0565b5090565b5b808211156101e95760008160009055506001016101d1565b5090565b610264806101fc6000396000f3fe608060405234801561001057600080fd5b50600436106100415760003560e01c806312065fe014610046578063477a226314610064578063f5ec2eed146100bc575b600080fd5b61004e61013f565b6040518082815260200191505060405180910390f35b6100a66004803603602081101561007a57600080fd5b81019080803573ffffffffffffffffffffffffffffffffffffffff169060200190929190505050610147565b6040518082815260200191505060405180910390f35b6100c4610190565b6040518080602001828103825283818151815260200191508051906020019080838360005b838110156101045780820151818401526020810190506100e9565b50505050905090810190601f1680156101315780820380516001836020036101000a031916815260200191505b509250505060405180910390f35b600047905090565b6000600160008373ffffffffffffffffffffffffffffffffffffffff1673ffffffffffffffffffffffffffffffffffffffff168152602001908152602001600020549050919050565b60008054600181600116156101000203166002900480601f0160208091040260200160405190810160405280929190818152602001828054600181600116156101000203166002900480156102265780601f106101fb57610100808354040283529160200191610226565b820191906000526020600020905b81548152906001019060200180831161020957829003601f168201915b50505050508156fea264697066735822122010b42afe1d6b6a86f3feaa65053b1bf6aa4788e6394ef538b9b56b16599e513f64736f6c63430007030033",
  "linkReferences": {},
  "deployedLinkReferences": {}
}